:020000040800F2
:10000000606D0020CD03000807620008C5220008CB
:10001000056200086B1B00087B7B000800000000E5
:1000200000000000000000000000000015030008B0
:10003000D920000800000000690300088D64000852
:10004000E7030008E7030008E7030008E7030008E8
:10005000E7030008E7030008E7030008E7030008D8
:10006000E7030008E7030008E7030008E7030008C8
:10007000E7030008E7030008E7030008E7030008B8
:10008000E7030008E7030008E7030008E7030008A8
:10009000E7030008E7030008E7030008E703000898
:1000A000E7030008E7030008E7030008E703000888
:1000B000E7030008FD640008E7030008E703000801
:1000C000E7030008E7030008E7030008E703000868
:1000D000E70300084D660008E7030008E70300088F
:1000E000E7030008E7030008E7030008E703000848
:1000F000E7030008E7030008E7030008E703000838
:10010000E7030008E7030008E7030008E703000827
:10011000E7030008E7030008E7030008E703000817
:10012000E7030008E7030008E7030008E703000807
:10013000E7030008E7030008E7030008E7030008F7
:10014000E7030008E7030008E703000881620008EE
:10015000E7030008E7030008E7030008E7030008D7
:10016000E7030008E7030008E7030008E7030008C7
:10017000E70300088D620008E7030008E7030008B2
:10018000E7030008E703000800F002F800F0B2F807
:100190000AA090E8000C82448344AAF10107DA45E2
:1001A00001D100F0A7F8AFF2090EBAE80F0013F082
:1001B000010F18BFFB1A43F001031847D4BB00001E
:1001C000F4BB00000A444FF0000C10F8013B13F0A0
:1001D000070408BF10F8014B1D1108BF10F8015BA0
:1001E000641E05D010F8016B641E01F8016BF9D193
:1001F00013F0080F1EBF10F8014BAD1C0C1B09D1EA
:100200006D1E58BF01F801CBFAD505E014F8016B5B
:1002100001F8016B6D1EF9D59142D6D370470000ED
:100220000023002400250026103A28BF78C1FBD8FF
:10023000520728BF30C148BF0B6070476E2900F0DD
:100240007B83702900F0A78166290AF05481652913
:100250000AF0518167290AF04E816129AFF30080CD
:1002600003681B0A28BF41F08001692900F018814A
:10027000642900F01581752900F012816F2900F0C2
:100280007384782900F07381E92900F00D84E42952
:1002900000F00A84F52900F00784EF2900F070844B
:1002A000F82900F072810368DB0928BF41F0800162
:1002B000632900F07C83732900F08183E32900F037
:1002C0001987F32900F01E87002070471FB50AF038
:1002D0000DF900F093FF04000020002109F0B2FFA7
:1002E000401C60600020002109F096FFE0601FBD07
:1002F00010B510BD00F055FF1146FFF7E7FF07F0FE
:1003000069FD01F02DF803B4FFF7F2FF03BC07F01D
:1003100004FD00002A4B19680868B0E8F04F80F32C
:100320000988BFF36F8F4FF0000080F3118870478A
:100330000000000006480068006880F3088862B684
:1003400061B6BFF34F8FBFF36F8F00DF00BF00BFF9
:1003500008ED00E0DFF80C00016841F47001016075
:10036000704700BF88ED00E0EFF30980BFF36F8FA7
:10037000134B1A681EF0100F08BF20ED108A20E9F9
:10038000F04F106008B44FF0500080F31188BFF3B5
:100390004F8FBFF36F8F09F045F84FF0000080F3E7
:1003A000118808BC19680868B0E8F04F1EF0100FFB
:1003B00008BFB0EC108A80F30988BFF36F8F7047D5
:1003C00050000020EFF30580704700000948804787
:1003D00009480047FEE7FEE7FEE7FEE7FEE7FEE727
:1003E000FEE7FEE7FEE7FEE704480549054A064B3F
:1003F00070470000A16400088901000860670020C0
:10040000606D002060690020606900207047000076
:100410001CB50C46064B7B4469460090204600F014
:10042000A4FA04460020694600F0B2FA20461CBD3A
:10043000770500000FB4044910B503AA029800F034
:10044000C3FA10BC5DF814FB3C00002070B50C46EC
:100450000546012A05D02878800600D5EA690023E0
:1004600002E0012305E05B1C934202D2E05C00281D
:10047000F9D1A869E618C01AA861286A1844286248
:10048000284600F0C7F904E0D5E9012114F8010B72
:100490009047B442F8D3284600F0D2F970BD00006E
:1004A0002DE9F0410646002410687529314616A54D
:1004B00010D000F0D6F9002802DA404213A507E078
:1004C00031688A0701D512A502E0490704D511A5B4
:1004D000012401E000F0CEF900210A2206F12407F0
:1004E00009E0B0FBF2FCB0FBF2F302FB1C00303081
:1004F00078541846491C0028F3D123462A46304632
:10050000BDE8F04100F0BFB9000000002D00000080
:100510002B00000020000000F0B40D460188090502
:1005200002D5214C7C4402E01F4C7C440E34002157
:1005300000F1240608E002F00F071209E75D42EA25
:1005400003721B097754491C52EA0307F3D102785E
:100550000023120704D5702D06D009B102231134EF
:100560002246F0BC00F08FB901231034F8E770B5D3
:1005700004460D462146106800F07CF902462946E3
:100580002046BDE870400023C6E7D21D22F00703D5
:10059000D3E90023C0E70368126843F02003036037
:1005A0000823C3610023B7E792B700002DE9F05F8D
:1005B000894604464FF0000ADFF874B1FB44C0F8E6
:1005C00020A02046E1688847002874D0252806D05E
:1005D000D4E901219047206A401C2062F1E70026FF
:1005E0005F462046E16888472028054607DB312D15
:1005F00005D2781910F8200C08B10643F1E7B007CE
:1006000001D526F00406C4F81CA00027C4F818A0E1
:100610002A2D09D0284607F079FB38B304EB870868
:10062000303DC8F8185019E059F8041B204604EB77
:1006300087029161E1688847012F054618D1E0697A
:10064000002820DA26F020061DE0D8F8180000EB7C
:10065000800005EB40003038C8F818002046E168FB
:100660008847054607F052FB0028EED1012F0AD03B
:100670002E2D08D12046E16888477F1C0546022FB1
:1006800046F02006C4DBA069002803DA404246F0A9
:100690000106A061F00701D026F010066C2D0BD0EA
:1006A000682D09D04C2D39D06A2D35D0742D35D018
:1006B0007A2D33D016E038E0E1682F46204688478F
:1006C000B842054609D16C2F26D04FF48060E1680E
:1006D000064320468847054604E06C2F1AD04FF4A5
:1006E000807006430DB3A5F14100192802D82035CA
:1006F00046F400664A462946204626604E46FFF7E5
:100700009DFD80B101280BD0F61D26F0070000F1F9
:10071000080956E74020E4E78020D8E70020D6E724
:1007200006F104094DE7284652E7206ABDE8F09F2C
:1007300022B7000010B5431C02E010F8011B71B194
:100740008107FAD14FF0013202C88C1A8C4314EAA7
:10075000C211F9D0C01A0A0603D0C01E10BDC01ABB
:1007600010BD0A0401D0801E10BD0902FCD0401E3D
:1007700010BD032A40F2308010F0030C00F0158009
:1007800011F8013BBCF1020F624498BF11F801CB94
:1007900000F8013B38BF11F8013BA2F1040298BFF9
:1007A00000F801CB38BF00F8013B11F0030300F063
:1007B000F181083AC0F0088051F8043B083A51F83A
:1007C00004CBA0E80810F5E7121D5CBF51F8043B0C
:1007D00040F8043BAFF30080D20724BF11F8013B7F
:1007E00011F801CB48BF11F8012B24BF00F8013BE1
:1007F00000F801CB48BF00F8012B704702F0FF035F
:1008000043EA032242EA024200F0F8B97047704717
:100810007047704770B5044685690068C10601D508
:10082000302600E02026C00707D070BDD4E90121A2
:1008300030469047206A401C20626D1EF6D570BD80
:1008400070B5044685690078C00707D170BDD4E94A
:10085000012120209047206A401C20626D1EF6D5A1
:1008600070BD09684A0501D540B27047C905FCD57D
:1008700000B2704709684A0501D5C0B27047C90582
:10088000FCD580B270472DE9F0470D469946924657
:10089000044600F124080168880604D5E06921F0C7
:1008A0001001216000E00120A84201DD471B00E0AB
:1008B0000027A1697A1902EB0900081AA0612078C3
:1008C000C00602D42046FFF7A5FF002608E0D4E9C1
:1008D00001211AF806009047206A401C761C20620D
:1008E0004E45F4DB2078C0060AD52046FFF792FF7C
:1008F00006E0D4E9012130209047206A401C2062A4
:10090000381EA7F10107F4DC07E0D4E9012118F84B
:1009100005009047206A401C2062281EA5F10105B1
:10092000F3DC2046FFF78CFF2078000602D502207A
:10093000BDE8F0870120FBE711680268006A5305F3
:1009400001D508700AE0D30501D5088006E013063A
:1009500003D5C217C1E9000200E00860012070471A
:1009600001694A1C02610878704700B58FB0CDE973
:1009700001310021059105497944CDE90310114663
:100980006846FFF713FE0FB000BD0000E5FFFFFF54
:100990000A6802F8010B0A60704710B5436913B189
:1009A000AFF3008001E0FFF751FD012010BD127888
:1009B00000F124010A7000224A700122EDE711685B
:1009C0004FF0FF32E9E70000074B70B50D467B445E
:1009D000FFF7CBFF0446284600F098FB10B14FF01C
:1009E000FF3070BD204670BDEF7300002DE9FF5F42
:1009F00015468A460446DFF8AC80F8440027D8E95B
:100A000000103E46CDE9001010E03AF816106A4694
:100A100002A800F07FFB411C07D02178890603D58E
:100A2000E269391891420DD80744761C2078800677
:100A300002D5E069B84205DDAE42E6DB3AF81600C1
:100A40000028E2D1A069C01BA0612046FFF7E2FEAA
:100A5000D8E90010CDE90010002017E03AF818108E
:100A60006A4602A800F056FBB0F1FF3F81460BD06A
:100A700000250DF1080B05E0D4E901211BF8050064
:100A800090476D1C4D45F7D308F10100B0428046F8
:100A9000E4DB206A384420622046FFF7D1FEBDE83F
:100AA000FF9F0000F6B200002DE9F0418046D21D04
:100AB00022F007020025D2E90002F52915A614D07C
:100AC000011E72F1000106DA0023D0EB030063EB94
:100AD000020211A608E0D8F800108B0701D50FA676
:100AE00002E0490701D50EA601251146002408F1B0
:100AF000240704E000F0A2F830323A55641C50EAB2
:100B00000102F7D12B46324621464046BDE8F0416E
:100B1000FFF7B9BE000000002D0000002B00000010
:100B20002000000030B4002100F1240408E002F0AD
:100B30000705D208303542EA4372DB086554491C88
:100B400052EA0305F3D10468002310A2250708D553
:100B500004F020040C4304D0C46901230CA2641ED9
:100B6000C46130BCFFF78FBE10B504462146106843
:100B7000FFF780FE02462046BDE810400023D1E783
:100B8000D21D22F00701D1E90023CBE700000000CD
:100B90003000000010B5203AC0F00B80B1E81850CA
:100BA000203AA0E81850B1E81850A0E81850BFF457
:100BB000F5AF5FEA027C24BFB1E81850A0E81850F6
:100BC00044BF18C918C0BDE810405FEA827C24BF4A
:100BD00051F8043B40F8043B08BF7047D20728BFD8
:100BE00031F8023B48BF11F8012B28BF20F8023B27
:100BF00048BF00F8012B70474FF000020429C0F0F5
:100C0000128010F0030C00F0A782CCF1040CBCF1B0
:100C1000020F18BF00F8012BA8BF20F8022BA1EB90
:100C20000C0100F099BA5FEAC17C24BF00F8012BE7
:100C300000F8012B48BF00F8012B704730B5B0F128
:100C40000A024FEA900E71F100034EEA817EB0EB8A
:100C50000E0061EB91014FEA101E4EEA017E10EB8F
:100C60000E0041EB11114FEA102E4EEA016E10EB0F
:100C70000E0041EB11214FEA104E4EEA014E10EBEF
:100C80000E0041EB1141401841F100014FEAD00044
:100C900040EA41704FEAD10110EB80054FEA810430
:100CA00044EA907444EB01046D1944EB0404521BB4
:100CB000A3414FF0000348BF0A3200D530BD401CAD
:100CC00041F1000130BD70472DE9FF4F0C461E4633
:100CD0004FF0FF378BB0D2E90001DDF860800A9059
:100CE0008A46C1F30A5505B93D46002108464FF032
:100CF0000000BAF1000F00F4400005DA00EB8000BC
:100D00004FF4400101EA50004FEA9059B9F1010F48
:100D100000DDB9460A9850EA4A000ED044F6105059
:100D2000A5F2FF3545432F14B8F1000F1ED07542D0
:100D3000291E1EDDC9F100021CE0B8F1010F4FF0C1
:100D4000000001D0302103E0F24305E02154401CB3
:100D5000B042FBDB30460022002121540B99C1F840
:100D60000880C1E900200FB0BDE8F08FBD1B6D1CED
:100D7000DEE74A4600DA694206A800F083FA06ABCD
:100D800093E8070003AB83E8070050460A9900F098
:100D900031FB8DE80700A0F500501F380090039844
:100DA000002D09DD42F21F014A46084403A90390C1
:100DB000684600F090FD08E0A0F500504A461F3854
:100DC00003A90390684600F09AFD8DE8070000042F
:100DD000000C03D04FF0FF30410800E01046B8F19E
:100DE000000F03D00022009215461EE0751E05D4A8
:100DF000FFF724FF303262556D1EF9D5B34601224C
:100E0000084302D000227F1C04E02078302801D162
:100E100000227F1E002A099786D01DE0112D07DAD7
:100E2000FFF70CFF303262556D1C50EA0102F5D11C
:100E3000084302D00098C8B10EE00021681E05E00A
:100E4000235C625C63542254401E491C8142F7DBE0
:100E5000AB46A81B401E0990002004F80B000B981D
:100E6000099AC0F80880C0E9002B7CE711264FF0F2
:100E7000000859E72DE9F04F88460446D21D22F0BC
:100E8000070191B0D1E90001CDE90A0106F026FF82
:100E900002460B98C00F01D02D2007E02068810783
:100EA00001D52B2002E0202101EAC000032A09908D
:100EB00001D0072A05DB03464146204600F0A2F98F
:100EC0000BE12078800601D5E06900E00620B8F14A
:100ED000650F814606D0B8F1660F18D0B8F1670FDC
:100EE00070D131E00020B9F1110F009001DB112326
:100EF00001E009F101030AAA01A90CA8FFF7E4FE29
:100F0000DDE90C70002609F10105834647E0012068
:100F10004B4600904FF000470AAA01A90CA8FFF722
:100F2000D3FEDDE90DB00C995D46002610B909F13C
:100F300001000D18B9EB050003D4C0F1FF3609F12B
:100F40000105A5EB09002BE0B9F1010F01DA4FF023
:100F500001090020B9F1110F0090484601DD11236D
:100F600000E003460AAA01A90CA8FFF7ADFEDDE9DF
:100F70000C704D4600268346207800070AD4AB4506
:100F800000DA5D4601A8012D04DD411911F8011CAC
:100F9000302907D04F4502DA17F1040F04DA012097
:100FA00082460FE06D1EEEE7002F02DCED1B3E4493
:100FB00003E0781CA84200DD7D1CB81B00F1010A8B
:100FC0004FF000472078000703D4AA4501DB4FF01B
:100FD000FF3A0021B7F1004F0DF143088DF843109F
:100FE00024D002202B23002F01DA7F422D230A2157
:100FF000021EA0F1010000DC5FB197FBF1FC97FB42
:10100000F1F201FB1C7C17460CF1300C08F801CD05
:10101000EEE7A8F1010003702188090501D54521FB
:1010200000E06521A0F1010800F8011C09980FA952
:10103000A1EB0807FF1D00B10120411901EBEA7087
:10104000A1693844081A401EA0612078C00602D465
:101050002046FFF7DFFB099828B1D4E9012190472A
:10106000206A401C20622078C00622D52046FFF767
:10107000D1FB1EE0002E04DBB34502DD01A8805D3C
:1010800000E03020D4E901219047206A401C206212
:10109000761CAAF101005FEA000A0AD100F0AEF85E
:1010A000C0680168405CD4E901219047206A401C77
:1010B0002062281EA5F10105DCDC07E0D4E901214E
:1010C00018F8010B9047206A401C2062381EA7F1D7
:1010D0000107F3DC2046FFF7B3FB032011B043E622
:1010E00010B5436913B1AFF3008001E0FFF77EFC58
:1010F000012010BD128800F1240182840022C284E4
:101100000122EDE711684FF0FF32E9E7007B00F0C4
:101110008000704770B516460C46054600F066F82C
:10112000036893F80101012806D0FF2C0FD8185D41
:1011300068B101202C7070BDD3F8070132462146FA
:1011400003F2071303442846BDE8704018474FF0E8
:10115000FF3070BD4FF0000200B51346944696462E
:10116000203922BFA0E80C50A0E80C50B1F12001BA
:10117000BFF4F7AF090728BFA0E80C5048BF0CC068
:101180005DF804EB890028BF40F8042B08BF7047C6
:1011900048BF20F8022B11F0804F18BF00F8012B38
:1011A0007047754600F0E2F8AE46050069465346C2
:1011B00020F00700854618B020B5FFF715F9BDE807
:1011C00020404FF000064FF000074FF000084FF0AE
:1011D000000B21F00701AC46ACE8C009ACE8C0093F
:1011E000ACE8C009ACE8C0098D46704710B500F006
:1011F00005F8001D10BD00BF4D900000004870476D
:10120000206700202DE9F0411F46044603260168AF
:10121000072A01F4006004DB08B116A505E016A555
:1012200003E008B115A500E015A521F0100020602D
:10123000A069C01EA0610FB1401EA0612046FFF74B
:10124000E9FA4FB1D4E9012138469047206A401CA1
:101250002062C01C206206E0206AFAE7D4E901217E
:1012600015F8010B9047761EF8D22046FFF7E8FAF2
:10127000BDE8F0814E414E006E616E00494E460061
:10128000696E66002DE9F047814616468AB03348FC
:1012900078440DC88DE80D0030487844801C03ACBC
:1012A0000DC884E80D0041F69B300844372190FBBF
:1012B000F1F290FBF1F5A5F1800501FB12041B3C56
:1012C00002D56442012000E00020DFF890A08046B3
:1012D0000027FA44AAF1BE0A0DE0E00709D0324621
:1012E000684607EB47010AEB810100F008FB8DE837
:1012F000070064107F1C002CEFD1184F7F44AC3FD7
:1013000018E0E80714D007EB04100DF1180A90E874
:101310000E008AE80E00C068F04201D198190890CA
:10132000324606A903A800F0EAFA03AB83E80700F7
:101330006D10641C002DE4D132466946B8F1000FEF
:1013400003A802D000F0C7FA01E000F0D8FAC9E91A
:101350000001C9F808200AB0BDE8F087E4AA00003F
:101360000446AFF300802046FEF7CDFF00487047EB
:10137000006700204FF0013C50F8042B51F8043B6B
:101380009A4221D1A2EB0C03934313EACC1317D159
:1013900050F8042B51F8043B9A4215D1A2EB0C03F0
:1013A000934313EACC130BD150F8042B51F8043BB0
:1013B0009A4209D1A2EB0C03934313EACC13DBD07E
:1013C0004FF00000704700BFD01A01BAB1FA81F1A6
:1013D00001F0180122FA01F0CB40C1F12001DBB28B
:1013E000C0B2C01A2CFA01F3D11A914311EAC31109
:1013F000E6D170475FEA400C08BF91F0000F4FEA5A
:101400008C234FEAC12243EA51514FEA1C5018BFC6
:1014100000F5F0404FEA300018BF41F000415FEAAC
:101420006C5C00F02980BCF1FF3F08BF40F08040B9
:101430007047130C06BF12044FF0100C4FF0000C55
:10144000130E04BF12020CF1080C130F04BF12019B
:101450000CF1040C930F04BF92000CF1020CD30F9B
:1014600004BF52000CF1010C11464FF00002A0F134
:101470001F00A0EB0C00704711F0004F08BF704731
:1014800031F000413FF4D5AF0B0C06BF09044FF01B
:10149000100C4FF0000C0B0E04BF09020CF1080CED
:1014A0000B0F04BF09010CF1040C8B0F04BF890062
:1014B0000CF1020CCB0F04BF49000CF1010CCCF174
:1014C0002003A0EB0C0022FA03F302FA0CF241EA2B
:1014D000030100F10100704720F07F4C80EA030017
:1014E00023F07F47ACEB070303F57C5300F000408B
:1014F00003F1FF032DE980494FEA154B09B44FEA88
:10150000144325EA0B4E24EA03480FF2042606EBA7
:10151000132749083E785FEA320203FB0667C7F5E6
:10152000000707FB06F64FEA54374FEAD64606F1A6
:10153000020607FB066CCCF1005C4FEA1C472CEA64
:10154000074C07FB06F40CFB06F504EB15464FEAC7
:10155000961634BF00204FF000404FEAD13706FB0B
:1015600007FC4FEA1C4C0CFB0BF7D21B03FB0CF7E0
:1015700061EB07010CFB0EF7B0EB074072EB174273
:101580000CFB08F734BFA2EB0742B2EB074261EB5A
:1015900017414FEA0C444FEA910706FB07FC4FEA5C
:1015A0001C4C0CFB0BF7B0EBC74072EB573203FB44
:1015B0000CF734BFA2EBC742B2EBC74261EB573125
:1015C0000CFB0EF7B0EBC70072EB57720CFB08F781
:1015D00034BFA2EBC702B2EBC70261EB5771039FA6
:1015E0004FEA816141EA921104EBCC044FEAD13712
:1015F0004FEA826206FB07FC42EA90124FEA8060E3
:101600004FEA1C4C0CFB0BF7D21B03FB0CF761EBF6
:1016100007010CFB0EF7B0EB074072EB17420CFB17
:1016200008F734BFA2EB0742B2EB074261EB174168
:101630004FEA8C554FEA910704EB9C2406FB07FC0C
:101640004FEA1C4C0CFB0BF7B0EBC74072EB573268
:1016500003FB0CF734BFA2EBC742B2EBC74261EB0E
:1016600057310CFB0EF7B0EBC70072EB57720CFB57
:1016700008F734BFA2EBC702B2EBC70261EB5771A8
:1016800015EB4C254FEA816141EA92114FEA8262E3
:101690004FEAD13742EA901206FB07FC44F10004FE
:1016A0004FEA80604FEA1C4C0CFB0BF7D21B03FB8C
:1016B0000CF761EB07010CFB0EF7B0EB074072EB88
:1016C00017420CFB08F734BFA2EB0742B2EB07420C
:1016D00061EB174115EB1C154FEA813141EA92414C
:1016E0004FEA823242EA90424FEA80304FEA0C766B
:1016F00044F1000448EA03434EEA0B484FF0000E61
:10170000B2EB080C71EB030724BF624639464EEB7F
:101710000E0E4FF0000B0018524149414BEB0B0BE2
:10172000B2EB080C71EB03077BF1000B24BF6246A0
:1017300039464EEB0E0E4FF0000B00185241494156
:101740004BEB0B0BB2EB080C71EB03077BF1000BBF
:1017500024BF624639464EEB0E0E51EA020718BF0F
:1017600046F0010616EB0E7655F1000254F1000129
:1017700003D5BDE88901BDE80088BDE88901BDE861
:101780000048B619524141EB0101A3F10103704732
:1017900080807F7E7D7C7B7A7978777676757473AE
:1017A000727171706F6E6E6D6C6C6B6A6A6968686D
:1017B000676666656464636362616160605F5F5E03
:1017C0005E5D5D5C5C5B5B5A5A5959585857575679
:1017D00056555555545453535252525151505050DE
:1017E0004F4F4F4E4E4D4D4D4C4C4C4B4B4B4A4A30
:1017F0004A49494948484847474747464646454574
:1018000045444444444343434342424242414141AC
:10181000002B26D4770021D01CB54FEA370703B43C
:101820004FF010004FF010014FF000000FBCBDE86A
:1018300010400BF1010BBBF1010F08BF5FEA170766
:1018400022BF12F1010211F101014FF0004143F1F9
:10185000000300F0004043EA00007047F9D3570846
:10186000DAE746EA064613F1400F4FEA16461FDD57
:1018700013F1200FDFBF16430A46002120335B42DD
:10188000C8D0C3F1200746EA064602FA07F74FEA36
:10189000164646EA0706C3F1200722FA03F201FAC8
:1018A00007F721FA03F14FF0000342EA0702B1E71C
:1018B00046EA020646EA06464FEA164646EA0106A8
:1018C000BCBF46EA0646360C4FF000034FF000025C
:1018D0004FF000019EE72DE9C048934630B491E8EF
:1018E000380007C831EA400C48BF34EA430C03D53E
:1018F000FFF7F2FDFFF78CFFF0BCBDE800882DE993
:10190000C048934630B491E8380007C810F0804FC3
:1019100008BF13F0804F03D100F005F8FFF778FF00
:10192000F0BCBDE8008820F07F4780EA030023F088
:101930007F4C07EB0C03A3F57C5300F00040A3F1B0
:10194000FE0392F0000F00F0B38095F0000F00F05E
:1019500077802DE901494FEA11404FEA144621EA08
:10196000004800FB06FC24EA064708FB06F607FBD6
:1019700008F800FB07F718EB06484CEB164C4FEA4B
:10198000124B18EB07484FEA15464CEB174022EA7A
:101990000B4E0BFB06FC25EA06470EFB06F607FB83
:1019A0000EFE0BFB07F71EEB064E4CEB164C4FF0F2
:1019B00000061EEB074E4CEB174B18EB0B0840F1E3
:1019C000000018EB0E0B58EB000840F100008F1AD6
:1019D0004FF000013CBFC943661B14BFB5EB040CBC
:1019E00000213CBFC943F61B4FEA17444EEA8E0E56
:1019F00027EA04454FEA1C4704FB07622CEA074C20
:101A000005FB07F70CFB05F604FB0CFC16EB074681
:101A100042EB174216EB0C4642EB1C421BEB060650
:101A200058EB0202414146EA9E0601D5BDE8018914
:101A3000B619524141EB0101A3F10103BDE801894F
:101A40004FEA14454FEA114724EA054621EA074CBC
:101A500005FB07F406FB07F70CFB06F105FB0CFC86
:101A600011EB074144EB17444FEA124711EB0C41CD
:101A700044EB1C4422EA074C05FB07F206FB07F780
:101A80000CFB06F605FB0CFC16EB074642EB174277
:101A900016EB0C4642EB1C456A1854F1000148BF96
:101AA0007047B619524141EB0101A3F101037047A0
:101AB00095F0000F37D04FEA11424FEA144721EA60
:101AC000024624EA074C02FB07F106FB07F70CFB72
:101AD00006F402FB0CFC14EB074441EB17414FEA00
:101AE000154714EB0C4441EB1C4125EA074C02FB63
:101AF00007F506FB07F70CFB06F602FB0CFC16EBE2
:101B0000074645EB174516EB0C4645EB1C421219F0
:101B100051F1000148BF7047B619524141EB010134
:101B2000A3F1010370474FEA14454FEA114724EA35
:101B3000054621EA074C05FB07F106FB07F70CFBFE
:101B400006F24FF0000605FB0CFC12EB074241EBDE
:101B5000174112EB0C4251EB1C4148BF70479218E1
:101B600041EB0101A3F101037047FEE703480022A6
:101B7000026042605321312004F0DABC28000020CA
:101B800010B50B460C0601F07F0202EB820100EB60
:101B9000C10102D501F58E7101E001F55D710A7098
:101BA000DA094A7005F0E0FD002010BD0A4610B5C4
:101BB000090602F07F0306D503EB830100EBC101A8
:101BC00001F58E7105E002EB820100EBC10101F528
:101BD0005D7100248C700B70D2094A7005F0ABFD6A
:101BE000002010BD70B50D460E0601F07F0404EB19
:101BF000840100EBC10102D501F58E7101E001F510
:101C00005D71ED090C704D708A60CB7000D0CC8096
:101C1000022B01D100220A7105F064FD002070BD85
:101C200010B501F07F0404EB840100EBC101C1F8A1
:101C30008833C1F880230023C1F88C3381F87533D1
:101C400081F87443C37801F55D71012B00D10A61FD
:101C500014F0FF0F03D005F0B9FD002010BD05F012
:101C6000D2FCFAE70069002261F30A12016811430D
:101C7000016070470A4610B5090602F07F0306D5D9
:101C800003EB830100EBC10101F58E7105E002EB6E
:101C9000820100EBC10101F55D7101248C700B70B4
:101CA000D2094A7005F07AFD002010BD70B511F020
:101CB0007F0404EB840100EBC1014FF0010581F8C2
:101CC0001D5181F81C41C1F82821C1F82C2101F5D2
:101CD0008E714FF00002C1E9053203D005F076FDA8
:101CE000002070BD05F08FFCFAE700002DE9F041FF
:101CF0000646002405F093FE074655E0F80751D04C
:101D00003069E1B20369426BCA4006EB810102F01F
:101D10000102896943EAC2128D681540E9071AD0A9
:101D20000125426B05FA04F18A43426306EB840005
:101D3000806985601F48E1B200684268304690477C
:101D4000F078012807D134B996F81101042802D19E
:101D5000304605F0B5FC280704D506EB84000825BD
:101D600080698560E80604D506EB8400102580694B
:101D70008560680604D506EB84004025806985608F
:101D8000A80704D506EB8400022580698560280633
:101D900008D52146304600F066F906EB8401802024
:101DA000896988607F08641C002FA7D10120BDE8E5
:101DB000F0810000680100202DE9F0410546002473
:101DC00005F033FE0746DFF8988043E0F8073FD080
:101DD000E1B2284605F02FFE0646C00725D005EBE8
:101DE00084000126416D8E60E97801290CD1406D97
:101DF000016904EB840005EBC000C1F31201D0F8C7
:101E00007C23511AC0F88C13D8F80000E1B20268A4
:101E100028469047E878012807D134B995F8110190
:101E2000052802D1284605F04BFCB00704D505EB88
:101E300084000226406D8660300709D5D8F800007E
:101E400081682846884705EB84010820496D886031
:101E50007F08641C002FB9D10120BDE8F08100008B
:101E60006801002070B50546C068816921F0100145
:101E70008161E868066A06F00F0000EB800005EB60
:101E8000C004C6F3434004F55D74072821D2DFE89F
:101E900000F0202004202020150047F6F0700642B4
:101EA00017D0C6F30A1632462846E16805F0CBFD86
:101EB000E0683044E060A069304409E0082205F29F
:101EC000CC51284605F0BFFDA069C6F30A110844AD
:101ED000A061E868816941F010018161012070BD55
:101EE00038B5044600208DF8000094F812018DF8F2
:101EF00000001548006841692046884720698068CD
:101F0000E2684FF400615161A17AD1B1C00718D0E5
:101F100094F81501012814D19DF80000032810D170
:101F2000D4F80C01016841F001010160D4F80C0102
:101F3000016841F0030101600448016841F00601B5
:101F40000160012038BD00006801002010ED00E0B4
:101F500070B50446006900250126416821F00101A1
:101F600041602946204605F011FD0020FF2206E0D1
:101F700004EB80018B699A60496D8A60401C61782E
:101F80008142F5D821694FF0FF30886128462169E8
:101F900066F30F0066F31F40C861216945F00B002E
:101FA0004861216945F00B0008612069016821F44E
:101FB000FE610160204605F083FBE1684FF480502C
:101FC000486103480068016920468847012070BDC8
:101FD0006801002070B5044605F046FD012000238D
:101FE00084F8120184F814311A46402510E002EBFF
:101FF000820104EBC10181F81D0181F81C21A1F8C7
:10200000222181F81F31C1E94953521CC1F83031F6
:1020100061789142EBD8002010E000EB800104EBE6
:10202000C10181F8753381F87403A1F87A0381F84E
:102030007733C1E9DF53401CC1F8883361788142AE
:10204000EBD8204605F0BAFA204605F0B5F9002194
:10205000204605F069FD204605F0EEF92046BDE872
:10206000704005F06DBC2DE9F0470E4601EB86018E
:1020700000EBC1048146D4E94C01401AD4F8241184
:1020800004F58E74814200D20846C01C870809EB13
:10209000860812E0451AA068A84200D20546E81C4E
:1020A0008708ABB2F2B24846E16805F052FDE0683D
:1020B0002844E060A0692844A061D8F8180080692D
:1020C00080B2B84205D9D4E90501814201D2002885
:1020D000E0D10120BDE8F087704700008000A0F14A
:1020E000C0400029016802D041F0010101E0024A2C
:1020F0001140016070470000FEFF0F0010B5D0E9ED
:1021000001121143D0E903231A43114342691143D9
:1021100082691143C2691143026A1143426A114341
:10212000826A1143C26A1143026B11430268920032
:10213000A2F1C04211608168082907D101688900B5
:10214000A1F1C0410A6842F040020A60416BD1E946
:10215000002342EA03128B688C891B0243EA044382
:102160001A430B8A42EA03520B7D896942EA0362F1
:102170000A4301688900A1F1C0414A60C16AB1F512
:10218000804F08D000686FF070418000A0F1C0401F
:10219000C0F8041110BD816BD1E9002342EA03129B
:1021A0008B680C8A1B0243EA04531A430B7D89692E
:1021B00042EA036200680A438000A0F1C040C0F810
:1021C000042110BDF0B5002201274FF0030C0B686D
:1021D00007FA02F52B40AB422CD1066853000CFAEB
:1021E00003F4A64306600E79D0F800E09E4046EA6C
:1021F0000E0606600E79012E01D0022E12D18668DD
:10220000A64386604E79D0F808E09E4046EA0E0666
:1022100086604668AE43466045688E799640B6B2A1
:1022200035434560C568A543C560CC799C40C3680B
:102230001C43C460521C102AC9D3F0BD4B07DB0EEF
:102240009A40C90810B500EB8100016A0F249C4038
:10225000A1430162016A1143016210BD018370470D
:10226000F0B4164D297801290AD0E9680026B1F5A5
:10227000006F00D1EE60D5E90221914202D12E70AB
:10228000F0BC704702D9C1F5006201E0A2EB010287
:102290002A61402A8CB205D940234031403AC5E931
:1022A000031203E01144C5E9031693B2012129701A
:1022B00003490A19F0BC8121FFF7F8BC8001002016
:1022C000FF5E0020FEE700002DE9F043184F0646B0
:1022D000002438887D884543B888A0F5D04104396A
:1022E00002D1B879012808D00021084603F00AFE7F
:1022F00003F058FF4FF0D84016E00020B8714FF0BF
:102300002A09A7F80A904FF02B08A7F80C8001467D
:1023100003F0F8FD0120B871A7F80A80A7F80C9027
:10232000E6E7A0F88060641CAC42FAD3BDE8F08315
:102330000C0800202DE9F04F4A492A232B248988D4
:1023400045F2105A4FF4305B4FF4285E4FF4487555
:102350004FF0F00C49F241394FF4A07745F21036B6
:102360004FF4F07280B13F484FF00108494580F8C2
:1023700006800780A0F802C001D0B1423ED12C25D2
:1023800005814381848157E036484FF00008494574
:1023900080F80680A0F800C0478006D0A1F5D04C98
:1023A000BCF1040C01D0B1420CD12C250581438134
:1023B000A1F5D0438481043B01D0B14244D10780D0
:1023C000428041E0514507D1A0F808B0A0F80AE0EA
:1023D0004FF42C5181810EE0A1F5C856633E06D022
:1023E0002221018120214181212181812CE02C2188
:1023F0000181448183810280458025E0A1F5D04C94
:10240000BCF1040C09D051450BD1A0F808B0A0F8DC
:102410000AE04FF42C53838121E02C25058144816F
:1024200009E0A1F5C85CBCF1630C12D02223038142
:102430002123438120238381A1F5D043043B01D094
:10244000B14201D102804780BDE8F04F002003F087
:1024500057BC4FF02C0CA0F808C043818481058044
:102460004280E9E70C0800202DE9F043414D9146F8
:102470000C460246060AA9882846A1F5134340895E
:102480004FEA1428413B16D0A1F5A643103B12D0C9
:10249000B3F5007313D02E46A1F5C857B37936882B
:1024A000B61A761E633F23D0A1F5D047043F3AD039
:1024B000012B4DD04DE003F069FE304639E003F0CA
:1024C00065FE304603F056FE6889401C80B203F07A
:1024D0005DFED0B203F04EFEA88903F057FE4046E1
:1024E00003F048FEA889401C80B203F04FFE2BE0A9
:1024F00003B9B2B203F04AFE160A304603F03AFEC0
:10250000D0B203F037FE304603F034FED0B203F011
:1025100031FEA88903F03AFE404603F02BFEE0B2FC
:1025200003F028FE0DE0012B00D1B2B203F02EFE25
:10253000100A03F01FFED0B203F01CFEA88903F0BE
:1025400025FE404603F016FEE0B203F013FE07E05E
:10255000B2B2114603F030FEA889214603F02CFEEA
:102560004FF0D840298920F87E1FA0F80290BDE8DE
:10257000F08300000C0800202DE9F04FA1B00024EA
:1025800001217A201F9403F097FE0121084603F0F1
:10259000ABFE4FF40040009001208DF804008DF850
:1025A000064002208DF8050001208DF807006946DD
:1025B000FE48FFF707FE4CF23370009002208DF8C2
:1025C00004008DF8064003208DF8050001208DF8E9
:1025D00007006946F648FFF7F5FD4FF6807000905A
:1025E00002208DF804008DF8064003208DF80500C8
:1025F0000120F04D8DF8070069462846FFF7E2FDFF
:10260000A814009002208DF804008DF806400320E5
:102610008DF805000120E84E8DF807006946304628
:10262000FFF7D0FDA814009002208DF804008DF86B
:10263000064003208DF805000120E04F8DF80700CB
:1026400069463846FFF7BEFD0C220021D848FFF747
:10265000F5FD0C220121D648FFF7F0FD0C220421E4
:10266000D348FFF7EBFD0C220521D148FFF7E6FD2B
:102670000C220821CE48FFF7E1FD0C220921CC48AD
:10268000FFF7DCFD0C220A21C948FFF7D7FD0C2219
:102690000E21C748FFF7D2FD0C220F21C448FFF7D7
:1026A000CDFD0C2207212846FFF7C8FD0C2208218A
:1026B0002846FFF7C3FD0C2209212846FFF7BEFD7F
:1026C0000C220A212846FFF7B9FD0C220B212846CF
:1026D000FFF7B4FD0C2211462846FFF7AFFD0C2290
:1026E0000D212846FFF7AAFD0C220E212846FFF7F0
:1026F000A5FD0C220F212846FFF7A0FD0C22114654
:102700003046FFF79BFD0C2211463846FFF796FD39
:102710000F20CDE911043C20CDE9130415940920C4
:102720001694CDE917400820CDE919401B941C945C
:102730000620CDE902041D941E941020CDE904402A
:1027400006940002CDE90A40089407948000CDE980
:102750000C40099411A8CDE90E4018A8109002A8C9
:10276000FFF7CCFC01210620FFF7B8FC322005F072
:10277000F1FA0121002003F01FFD322005F0EAFAF2
:10278000002003F08AFA8E4A4FF0204A4FF6FF7B72
:10279000908049F2413545F2103645F2105441F629
:1027A000631846F60407FF2804D3584502D0B0F555
:1027B000134F74D1D32003F0E9FC03F064FA908046
:1027C00003F061FA908003F05EFA0BEA0020D9462C
:1027D000908003F058FA918808439080A8425ED018
:1027E000BF2003F0D3FC03F04EFA908003F04BFAC5
:1027F000908003F048FA908003F045FA09EA00203F
:10280000908003F040FA918808439080B84246D007
:10281000D42003F0BBFC03F036FA908003F033FAC7
:10282000908003F030FA09EA0020908003F02BFA40
:10283000918808439080B04231D04FF45A4003F061
:10284000A5FC03F020FA90804FF45B4003F09EFC5F
:1028500003F019FA09EA002090804FF45C4003F07D
:1028600095FC03F010FA918808439080B0F5004F72
:1028700039D0A04213D0A12003F088FC03F003FA62
:10288000908003F000FA09EA0020908003F0FBF941
:1028900091880843A0F5AE419080613920D080B284
:1028A000A84205D0B04203D0A04201D040451CD17F
:1028B000DAF81C11504621F00F01CAF81C11DAF8A1
:1028C0001C1121F47061CAF81C11DAF81C1141F0D6
:1028D0000301CAF81C11DAF81C1141F4007121E05F
:1028E000A2F80480E4E79480E2E7B84203D0A0F5C0
:1028F0004541053918D1DAF81C11504621F00F0175
:10290000CAF81C11DAF81C1121F47061CAF81C1104
:10291000DAF81C1141F00A01CAF81C11DAF81C118E
:1029200041F44061C0F81C119146918825A0FDF743
:1029300081FDB9F80400A8427DD1CF2003F026FC28
:10294000002003F017FCC12003F014FC302003F03A
:1029500011FCED2003F01AFC642003F00BFC0320B3
:1029600003F008FC122003F005FC812003F002FCB8
:10297000E82003F00BFC852003F0FCFB102003F0A3
:10298000F9FB7A2003F0F6FBCB2003F0FFFB3920A4
:1029900003F0F0FB2C2003F0EDFB002003F0EAFB3A
:1029A000342003F0E7FB022014E0000000040240A2
:1029B000000C0240001002400014024000180240C7
:1029C0000C080020204C43442049443A25780D0A45
:1029D0000000000003F0CEFBF72003F0D7FB20201F
:1029E00003F0C8FBEA2003F0D1FB002003F0C2FB98
:1029F000002003F0BFFBC02003F0C8FB1B2003F046
:102A0000B9FBC12003F0C2FB012003F0B3FBC520DA
:102A100003F0BCFB302003F0ADFB302003F0AAFB39
:102A2000C72003F0B3FBB72003F0A4FB362003F06C
:102A3000ADFB482000E0A7E003F09CFB3A2003F048
:102A4000A5FB552003F096FBB12003F09FFB00206F
:102A500003F090FB1A2003F08DFBB62003F096FBE9
:102A60000A2003F087FBA22003F084FBF22003F08E
:102A70008DFB002003F07EFB262003F087FB012066
:102A800003F078FBE02003F081FB0F2003F072FBE2
:102A90002A2003F06FFB282003F06CFB082003F0D2
:102AA00069FB0E2003F066FB082003F063FB542053
:102AB00003F060FBA92003F05DFB432003F05AFB09
:102AC0000A2003F057FB0F2003F054FB002003F013
:102AD00051FB002003F04EFB002003F04BFB0020D5
:102AE00003F048FBE12003F051FB002003F042FB20
:102AF000152003F03FFB172003F03CFB072003F0F9
:102B000039FB112003F036FB062003F033FB2B20AA
:102B100003F030FB562003F02DFB3C2003F02AFB92
:102B2000052003F027FB102003F024FB0F2003F007
:102B300021FB3F2003F01EFB3F2003F01BFB0F2077
:102B400003F018FB2B2003F021FB002003F012FB05
:102B5000002003F00FFB012003F00CFB3F2003F0EB
:102B600009FB2A2003F012FB002003F003FB0020E6
:102B700003F000FB002003F0FDFAEF2003F0FAFA67
:102B8000112003F003FBA5E0B8427CD1112003F033
:102B9000FDFA142005F0DEF8D02003F0F7FA072044
:102BA00003F0E8FA422003F0E5FA1D2003F0E2FA10
:102BB000D12003F0EBFA002003F0DCFA1A2003F036
:102BC000D9FA092003F0D6FAD22003F0DFFA012067
:102BD00003F0D0FA222003F0CDFAC02003F0D6FA99
:102BE000102003F0C7FA3B2003F0C4FA002003F0E2
:102BF000C1FA022003F0BEFA112003F0BBFAC5208F
:102C000003F0C4FA032003F0B5FAC82003F0BEFABB
:102C1000002003F0AFFA252003F0ACFA212003F0E6
:102C2000A9FA052003F0A6FA002003F0A3FA0A206F
:102C300003F0A0FA652003F09DFA252003F09AFA2C
:102C4000772003F097FA502003F094FA0F2003F056
:102C500091FA002003F08EFAF82003F097FA012091
:102C600003F088FAFE2003F091FA002003F082FAC4
:102C7000022003F07FFA202003F088FA362003F0C8
:102C800085FA082000E02BE003F074FA3A2003F004
:102C90007DFA552003F06EFA2B2003F077FA00201E
:102CA00003F068FA002003F065FA012003F062FAED
:102CB0003F2003F05FFA2A2003F068FA002003F0B7
:102CC00059FA002003F056FA012003F053FADF20EE
:102CD00003F050FA782005F03DF8292001F0FBBE02
:102CE000B0427CD1ED2003F051FA012003F042FA0A
:102CF000FE2003F03FFAEE2003F048FADE2003F056
:102D000039FA212003F036FAF12003F03FFA0120CE
:102D100003F030FADF2003F039FA102003F02AFA2A
:102D2000C42003F033FA8F2003F024FAC62003F006
:102D30002DFA002003F01EFAE22003F01BFAE22035
:102D400003F018FAE22003F015FABF2003F01EFA90
:102D5000AA2003F00FFAB02003F018FA0D2003F0B8
:102D600009FA002003F006FA0D2003F003FA002010
:102D700003F000FA112003F0FDF9002003F0FAF946
:102D8000192003F0F7F9002003F0F4F9212003F0F3
:102D9000F1F9002003F0EEF92D2003F0EBF900200B
:102DA00003F0E8F93D2003F0E5F9002003F0E2F933
:102DB0005D2003F0DFF9002003F0DCF95D2003F073
:102DC000D9F9002003F0D6F9B12003F0DFF9802013
:102DD00003F0D0F9002003F0CDF98B2000E0FCE3F4
:102DE00003F0C8F9002003F0C5F9962003F0C2F9FA
:102DF000002003F0BFF9B22003F0C8F9002003F06F
:102E0000B9F9002003F0B6F9022003F0B3F900206D
:102E100003F0B0F9032003F0ADF9002003F0AAF9A4
:102E2000B32003F0B3F9002003F0A4F9002003F06D
:102E3000A1F9002003F09EF9002003F09BF9002087
:102E400003F098F9002003F095F9002003F092F9BF
:102E5000002003F08FF9002003F08CF9002003F02C
:102E600089F9002003F086F9002003F083F900209F
:102E700003F080F9002003F07DF9002003F07AF9D7
:102E8000002003F077F9002003F074F9002003F02C
:102E900071F9002003F06EF9002003F06BF90020B7
:102EA00003F068F9002003F065F9002003F062F9EF
:102EB000002003F05FF9B42003F068F98B2003F0E1
:102EC00059F9002003F056F9962003F053F9002039
:102ED00003F050F9A12003F04DF9002003F04AF966
:102EE000B52003F053F9022003F044F9002003F069
:102EF00041F9032003F03EF9002003F03BF90420E0
:102F000003F038F9002003F035F9B62003F03EF95C
:102F1000002003F02FF9002003F02CF9B72003F074
:102F200035F9002003F026F9002003F023F93F20B3
:102F300003F020F9002003F01DF95E2003F01AF9D8
:102F4000002003F017F9642003F014F9002003F0C7
:102F500011F98C2003F00EF9002003F00BF9AC20DE
:102F600003F008F9002003F005F9DC2003F002F972
:102F7000002003F0FFF8702003F0FCF8002003F0BD
:102F8000F9F8902003F0F6F8002003F0F3F8EB20B6
:102F900003F0F0F8002003F0EDF8DC2003F0EAF88D
:102FA000002003F0E7F8B82003F0F0F8002003F069
:102FB000E1F8002003F0DEF8002003F0DBF8002049
:102FC00003F0D8F8002003F0D5F8002003F0D2F881
:102FD000002003F0CFF8002003F0CCF8BA2003F073
:102FE000D5F8242003F0C6F8002003F0C3F8002031
:102FF00003F0C0F8002003F0BDF8C12003F0C6F8CC
:10300000202003F0B7F8002003F0B4F8542003F0B8
:10301000B1F8002003F0AEF8FF2003F0ABF8002079
:1030200003F0A8F8C22003F0B1F80A2003F0A2F8D8
:10303000002003F09FF8042003F09CF8002003F028
:1030400099F8C32003F0A2F83C2003F093F8002085
:1030500003F090F83A2003F08DF8002003F08AF88E
:10306000392003F087F8002003F084F8372003F0BC
:1030700081F8002003F07EF83C2003F07BF800206C
:1030800003F078F8362003F075F8002003F072F8AA
:10309000322003F06FF8002003F06CF82F2003F0CB
:1030A00069F8002003F066F82C2003F063F8002094
:1030B00003F060F8292003F05DF8002003F05AF8CF
:1030C000262003F057F8002003F054F8242003F0E2
:1030D00051F8002003F04EF8242003F04BF80020B4
:1030E00003F048F8232003F045F8002003F042F8ED
:1030F0003C2003F03FF8002003F03CF8362003F0BA
:1031000039F8002003F036F8322003F033F80020BD
:1031100003F030F82F2003F02DF8002003F02AF8F8
:103120002C2003F027F8002003F024F8292003F0D6
:1031300021F8002003F01EF8262003F01BF80020E1
:1031400003F018F8242003F015F8002003F012F81B
:10315000242003F00FF8002003F00CF8232003F0E4
:1031600009F8002003F006F8C42003F00FF86220ED
:1031700003F000F8002002F0FDFF052002F0FAFF46
:10318000002002F0F7FF842002F0F4FF002002F09C
:10319000F1FFF02002F0EEFF002002F0EBFF18201C
:1031A00002F0E8FF002002F0E5FFA42002F0E2FFB9
:1031B000002002F0DFFF182002F0DCFF002002F008
:1031C000D9FF502002F0D6FF002002F0D3FF0C20E0
:1031D00002F0D0FF002002F0CDFF172002F0CAFF5E
:1031E000002002F0C7FF952002F0C4FF002002F08B
:1031F000C1FFF32002F0BEFF002002F0BBFFE6207B
:1032000002F0B8FF002002F0B5FFC52002F0BEFFBB
:10321000322002F0AFFF002002F0ACFF442002F0A9
:10322000A9FF002002F0A6FF652002F0A3FF002006
:1032300002F0A0FF762002F09DFF002002F09AFF2E
:10324000882002F097FF002002F094FFC62002F0D1
:103250009DFF202002F08EFF002002F08BFF172040
:1032600002F088FF002002F085FF012002F082FFBB
:10327000002002F07FFFC72002F088FF002002F04C
:1032800079FF002002F076FF002002F073FF00209B
:1032900002F070FFC82002F079FF002002F06AFF00
:1032A000002002F067FF002002F064FF002002F01F
:1032B00061FFC92002F06AFF002002F05BFF0020DE
:1032C00002F058FF002002F055FF002002F052FFEC
:1032D000002002F04FFF002002F04CFF002002F01F
:1032E00049FF002002F046FF002002F043FF0020CB
:1032F00002F040FF002002F03DFF002002F03AFF04
:10330000002002F037FF002002F034FF002002F01E
:1033100031FF002002F02EFFE02002F037FF1620E0
:1033200002F028FF002002F025FF1C2002F022FFFF
:10333000002002F01FFF212002F01CFF002002F0FD
:1033400019FF362002F016FF002002F013FF46207E
:1033500002F010FF002002F00DFF522002F00AFFE1
:10336000002002F007FF642002F004FF002002F0BA
:1033700001FF7A2002F0FEFE002002F0FBFE8B200F
:1033800002F0F8FE002002F0F5FE992002F0F2FEB5
:10339000002002F0EFFEA82002F0ECFE002002F078
:1033A000E9FEB92002F0E6FE002002F0E3FEC420B0
:1033B00002F0E0FE002002F0DDFECA2002F0DAFE9C
:1033C000002002F0D7FED22002F0D4FE002002F04E
:1033D000D1FED92002F0CEFE002002F0CBFEE0208C
:1033E00002F0C8FE002002F0C5FEF32002F0C2FE8B
:1033F000002002F0BFFEE12002F0C8FE162002F01D
:10340000B9FE002002F0B6FE1C2002F0B3FE002040
:1034100002F0B0FE222002F0ADFE002002F0AAFE73
:10342000362002F0A7FE002002F0A4FE452002F0A4
:10343000A1FE002002F09EFE522002F09BFE002022
:1034400002F098FE642002F095FE002002F092FE49
:103450007A2002F08FFE002002F08CFE8B2002F01A
:1034600089FE002002F086FE992002F083FE0020F3
:1034700002F080FEA82002F07DFE002002F07AFE1D
:10348000B92002F077FE002002F074FEC42002F0A2
:1034900071FE002002F06EFECA2002F06BFE0020DA
:1034A00002F068FED22002F065FE002002F062FE0B
:1034B000D82002F05FFE002002F05CFEE02002F067
:1034C00059FE002002F056FEF32002F053FE0020C9
:1034D00002F050FEE22002F059FE052002F04AFE02
:1034E000002002F047FE0B2002F044FE002002F014
:1034F00041FE1B2002F03EFE002002F03BFE342085
:1035000002F038FE002002F035FE442002F032FEC8
:10351000002002F02FFE4F2002F02CFE002002F0CF
:1035200029FE612002F026FE002002F023FE792011
:1035300002F020FE002002F01DFE882002F01AFE9C
:10354000002002F017FE972002F014FE002002F087
:1035500011FEA62002F00EFE002002F00BFEB720A6
:1035600002F008FE002002F005FEC22002F002FE7A
:10357000002002F0FFFDC72002F0FCFD002002F059
:10358000F9FDD12002F0F6FD002002F0F3FDD62077
:1035900002F0F0FD002002F0EDFDDD2002F0EAFD7A
:1035A000002002F0E7FDF32002F0E4FD002002F02D
:1035B000E1FDE32002F0EAFD052002F0DBFD002042
:1035C00002F0D8FD0A2002F0D5FD002002F0D2FD65
:1035D0001C2002F0CFFD002000E0FDE202F0CAFD59
:1035E000332002F0C7FD002002F0C4FD442002F0A9
:1035F000C1FD002002F0BEFD502002F0BBFD002006
:1036000002F0B8FD622002F0B5FD002002F0B2FD2C
:10361000782002F0AFFD002002F0ACFD882002F01F
:10362000A9FD002002F0A6FD972002F0A3FD0020D6
:1036300002F0A0FDA62002F09DFD002002F09AFD00
:10364000B72002F097FD002002F094FDC22002F0A6
:1036500091FD002002F08EFDC72002F08BFD0020BE
:1036600002F088FDD12002F085FD002002F082FDED
:10367000D52002F07FFD002002F07CFDDD2002F06D
:1036800079FD002002F076FDF32002F073FD0020AA
:1036900002F070FDE42002F079FD012002F06AFDE5
:1036A000002002F067FD012002F064FD002002F01E
:1036B00061FD022002F05EFD002002F05BFD2A2089
:1036C00002F058FD002002F055FD3C2002F052FDB2
:1036D000002002F04FFD4B2002F04CFD002002F0D4
:1036E00049FD5D2002F046FD002002F043FD7420FC
:1036F00002F040FD002002F03DFD842002F03AFD82
:10370000002002F037FD932002F034FD002002F08B
:1037100031FDA22002F02EFD002002F02BFDB3208F
:1037200002F028FD002002F025FDBE2002F022FD5F
:10373000002002F01FFDC42002F01CFD002002F05A
:1037400019FDCD2002F016FD002002F013FDD3205C
:1037500002F010FD002002F00DFDDD2002F00AFD58
:10376000002002F007FDF32002F004FD002002F02B
:1037700001FDE52002F00AFD002002F0FBFC002024
:1037800002F0F8FC002002F0F5FC002002F0F2FC50
:10379000022002F0EFFC002002F0ECFC292002F0F5
:1037A000E9FC002002F0E6FC3C2002F0E3FC0020F3
:1037B00002F0E0FC4B2002F0DDFC002002F0DAFC1D
:1037C0005D2002F0D7FC002002F0D4FC742002F04F
:1037D000D1FC002002F0CEFC842002F0CBFC0020C3
:1037E00002F0C8FC932002F0C5FC002002F0C2FCED
:1037F000A22002F0BFFC002002F0BCFCB32002F0CB
:10380000B9FC002002F0B6FCBE2002F0B3FC0020A0
:1038100002F0B0FCC42002F0ADFC002002F0AAFCD3
:10382000CD2002F0A7FC002002F0A4FCD32002F07F
:10383000A1FC002002F09EFCDC2002F09BFC00209A
:1038400002F098FCF32002F095FC002002F092FCBC
:10385000E62002F09BFC112002F08CFC002002F01C
:1038600089FC342002F086FC002002F083FC562004
:1038700002F080FC002002F07DFC762002F07AFC51
:10388000002002F077FC772002F074FC002002F0A8
:1038900071FC662002F06EFC002002F06BFC8820B8
:1038A00002F068FC002002F065FC992002F062FC46
:1038B000002002F05FFCBB2002F05CFC002002F064
:1038C00059FC992002F056FC002002F053FC6620BF
:1038D00002F050FC002002F04DFC552002F04AFCA2
:1038E000002002F047FC552002F044FC002002F0CA
:1038F00041FC452002F03EFC002002F03BFC43204E
:1039000002F038FC002002F035FC442002F032FCCA
:10391000002002F02FFCE72002F038FC322002F0F9
:1039200029FC002002F026FC552002F023FC002098
:1039300002F020FC762002F01DFC002002F01AFCB0
:10394000662002F017FC002002F014FC672002F051
:1039500011FC002002F00EFC672002F00BFC00209E
:1039600002F008FC872002F005FC002002F002FCB7
:10397000992002F0FFFB002002F0FCFBBB2002F0CC
:10398000F9FB002002F0F6FB992002F0F3FB002087
:1039900002F0F0FB772002F0EDFB002002F0EAFBE2
:1039A000442002F0E7FB002002F0E4FB562002F086
:1039B000E1FB002002F0DEFB232002F0DBFB002015
:1039C00002F0D8FB332002F0D5FB002002F0D2FB3E
:1039D000452002F0CFFB002002F0CCFBE82002F0F3
:1039E000D5FB002002F0C6FB002002F0C3FB9920AB
:1039F00002F0C0FB002002F0BDFB872002F0BAFB02
:103A0000002002F0B7FB882002F0B4FB002002F097
:103A1000B1FB772002F0AEFB002002F0ABFB66208A
:103A200002F0A8FB002002F0A5FB882002F0A2FB18
:103A3000002002F09FFBAA2002F09CFB002002F075
:103A400099FBBB2002F096FB002002F093FB99202B
:103A500002F090FB002002F08DFB662002F08AFB52
:103A6000002002F087FB552002F084FB002002F0CA
:103A700081FB552002F07EFB002002F07BFB4420FE
:103A800002F078FB002002F075FB442002F072FB8C
:103A9000002002F06FFB552002F06CFB002002F0CA
:103AA00069FBE92002F072FBAA2002F063FB002010
:103AB00002F060FB002002F05DFB002002F05AFBE8
:103AC000002002F063FBAA2002F054FBCF2002F09A
:103AD0005DFB002002F04EFB002002F04BFB0020BB
:103AE00002F048FB002002F045FB002002F042FB00
:103AF000002002F03FFB002002F03CFB002002F01F
:103B000039FB002002F036FB002002F033FB0020DE
:103B100002F030FB002002F02DFB002002F02AFB17
:103B2000002002F027FB002002F024FB002002F01E
:103B300021FB002002F01EFBF02002F027FB0020FA
:103B400002F018FB502002F015FB002002F012FBDF
:103B5000002002F00FFB002002F00CFBF32002F02B
:103B600015FB002002F006FBF92002F00FFB0620F7
:103B700002F000FB102002F0FDFA292002F0FAFA10
:103B8000002002F0F7FA3A2002F000FB552002F084
:103B9000F1FA112002F0FAFA642004F0DBF829208F
:103BA00002F0F4FA352002F0F1FA002002F0E2FA15
:103BB000512002F0EBFAFF2002F0DCFA532002F071
:103BC000E5FA2C2002F0D6FA552002F0DFFA822026
:103BD00002F0D0FA2C20FCE3A0427DD14FF47043D8
:103BE0005521184602F0E8FA4FF20104AA212046B6
:103BF00002F0E2FA651C5221284602F0DDFAA61C0A
:103C00000821304602F0D8FAE71C0121384602F0BC
:103C1000D3FA0D214FF4304002F0CEFA0D214BF2D1
:103C2000010002F0C9FA0D214BF2020002F0C4FAC1
:103C30004FF436483421404602F0BEFA34214BF2AC
:103C4000016002F0B9FA34214BF2026002F0B4FADA
:103C50004FF431490D21484602F0AEFA4BF2011AF9
:103C60000D21504602F0A8FA0D214BF2021002F08D
:103C7000A3FA34214FF4374002F09EFA34214BF27C
:103C8000017002F099FA34214BF2027002F094FABA
:103C900000214FF4324002F08FFA00214BF2012054
:103CA00002F08AFA00214BF2022002F085FA242168
:103CB0004FF4384002F080FA24214BF6010002F064
:103CC0007BFA24214BF6020002F076FA01214FF430
:103CD0003F4002F071FA00E0FEE30F214FF4334061
:103CE00002F06AFA0F214BF2013002F065FA0F215F
:103CF0004BF2023002F060FA34214FF4394002F006
:103D00005BFA34214BF6011002F056FA34214BF6DF
:103D1000021002F051FA08214FF4354002F04CFA3B
:103D200008214BF2015002F047FA08214BF20250F1
:103D300002F042FA03214FF4424002F03DFA2421FE
:103D40004FF43A4002F038FA24214BF6012002F0F9
:103D500033FA24214BF6022002F02EFA00214FF410
:103D60003C4002F029FA78214BF6014002F024FA97
:103D700000214BF6024002F01FFA00214FF43D40B3
:103D800002F01AFA78214BF6015002F015FA0021E0
:103D90004BF6025002F010FA00214FF43E4002F0C0
:103DA0000BFA64214BF6016002F006FA00214FF491
:103DB000514002F001FA33214DF2011002F0FCF9FA
:103DC00000214DF2021002F0F7F934214DF20310F8
:103DD00002F0F2F900214DF2041002F0EDF93A215F
:103DE0004DF2051002F0E8F900214DF2061002F044
:103DF000E3F94A214DF2071002F0DEF900214DF2FD
:103E0000081002F0D9F95C214DF2091002F0D4F942
:103E100000214DF20A1002F0CFF981214DF20B1072
:103E200002F0CAF900214DF20C1002F0C5F9A621EA
:103E30004DF20D1002F0C0F900214DF20E1002F00B
:103E4000BBF9E5214DF20F1002F0B6F901214DF258
:103E5000101002F0B1F913214DF2111002F0ACF97B
:103E600001214DF2121002F0A7F954214DF2131066
:103E700002F0A2F901214DF2141002F09DF9822105
:103E80004DF2151002F098F901214DF2161002F0D2
:103E900093F9CA214DF2171002F08EF902214DF26A
:103EA000181002F089F900214DF2191002F084F97E
:103EB00002214DF21A1002F07FF901214DF21B1080
:103EC00002F07AF902214DF21C1002F075F934214A
:103ED0004DF21D1002F070F902214DF21E1002F099
:103EE0006BF967214DF21F1002F066F902214DF2C5
:103EF000201002F061F984214DF2211002F05CF9EA
:103F000002214DF2221002F057F9A4214DF22310A4
:103F100002F052F902214DF2241002F04DF9B721BE
:103F20004DF2251002F048F902214DF2261002F060
:103F300043F9CF214DF2271002F03EF902214DF254
:103F4000281002F039F9DE214DF2291002F034F97F
:103F500002214DF22A1002F02FF9F2214DF22B101E
:103F600002F02AF902214DF22C1002F025F9FE216F
:103F70004DF22D1002F020F903214DF22E1002F027
:103F80001BF910214DF22F1002F016F903214DF20A
:103F9000301002F011F933214DF2311002F00CF91A
:103FA00003214DF2321002F007F96D214DF233106A
:103FB00002F002F900214FF4524002F0FDF83321E3
:103FC0004DF2012002F0F8F800214DF2022002F03B
:103FD000F3F834214DF2032002F0EEF800214DF207
:103FE000042002F0E9F83A214DF2052002F0E4F84D
:103FF00000214DF2062002F0DFF84A214DF20720A1
:1040000002F0DAF800214DF2082002F0D5F85C2128
:104010004DF2092002F0D0F800214DF20A2002F002
:10402000CBF881214DF20B2002F0C6F800214DF2B1
:104030000C2002F0C1F8A6214DF20D2002F0BCF8D0
:1040400000214DF20E2002F0B7F8E5214DF20F20CD
:1040500002F0B2F801214DF2102002F0ADF8132168
:104060004DF2112002F0A8F801214DF2122002F0C9
:10407000A3F854214DF2132002F09EF801214DF2D5
:10408000142002F099F882214DF2152002F094F8E4
:1040900001214DF2162002F08FF8CA214DF21720AF
:1040A00002F08AF802214DF2182002F085F8002172
:1040B0004DF2192002F080F802214DF21A2002F090
:1040C0007BF801214DF21B2002F076F802214DF21F
:1040D0001C2002F071F834214DF21D2002F06CF822
:1040E00002214DF21E2002F067F867214DF21F20D9
:1040F00002F062F802214DF2202002F05DF88421E6
:104100004DF2212002F058F802214DF2222002F057
:1041100053F8A4214DF2232002F04EF802214DF273
:10412000242002F049F8B7214DF2252002F044F88E
:1041300002214DF2262002F03FF8CF214DF2272038
:1041400002F03AF802214DF2282002F035F8DE2183
:104150004DF2292002F030F802214DF22A2002F01F
:104160002BF8F2214DF22B2002F026F802214DF21D
:104170002C2002F021F8FE214DF22D2002F01CF837
:1041800003214DF22E2002F017F810214DF22F20BE
:1041900002F012F803214DF2302002F00DF8332125
:1041A0004DF2312002F008F803214DF2322002F0E6
:1041B00003F86D214DF2332001F0FEFF00214FF492
:1041C000534001F0F9FF33214DF2013001F0F4FFCB
:1041D00000214DF2023001F0EFFF34214DF20330A7
:1041E00001F0EAFF00214DF2043001F0E5FF3A2131
:1041F0004DF2053001F0E0FF00214DF2063001F0F4
:10420000DBFF4A214DF2073001F0D6FF00214DF2CD
:10421000083001F0D1FF5C214DF2093001F0CCFFF4
:1042200000214DF20A3001F0C7FF81214DF20B3021
:1042300001F0C2FF00214DF20C3001F0BDFFA621BC
:104240004DF20D3001F0B8FF00214DF20E3001F0BB
:10425000B3FFE5214DF20F3001F0AEFF01214DF229
:10426000103001F0A9FF13214DF2113001F0A4FF2D
:1042700001214DF2123001F09FFF54214DF2133015
:1042800001F09AFF01214DF2143001F095FF8221D7
:104290004DF2153001F090FF01214DF2163001F082
:1042A0008BFFCA214DF2173001F086FF02214DF23B
:1042B000183001F081FF00214DF2193001F07CFF30
:1042C00002214DF21A3001F077FF01214DF21B302F
:1042D00001F072FF02214DF21C3001F06DFF34211C
:1042E0004DF21D3001F068FF02214DF21E3001F049
:1042F00063FF67214DF21F3001F05EFF02214DF296
:10430000203001F059FF84214DF2213001F054FF9B
:1043100002214DF2223001F04FFFA4214DF2233053
:1043200001F04AFF02214DF2243001F045FFB72190
:104330004DF2253001F040FF02214DF2263001F010
:104340003BFFCF214DF2273001F036FF02214DF225
:10435000283001F031FFDE214DF2293001F02CFF31
:1043600002214DF22A3001F027FFF2214DF22B30CD
:1043700001F022FF02214DF22C3001F01DFFFE2141
:104380004DF22D3001F018FF03214DF22E3001F0D7
:1043900013FF10214DF22F3001F00EFF03214DF2DB
:1043A000303001F009FF33214DF2313001F004FFCC
:1043B00003214DF2323001F0FFFE6D214DF233301A
:1043C00001F0FAFE00214FF4544001F0F5FE3321D4
:1043D00000E080E34DF2014001F0EEFE00214DF2DD
:1043E000024001F0E9FE34214DF2034001F0E4FE09
:1043F00000214DF2044001F0DFFE3A214DF205406C
:1044000001F0DAFE00214DF2064001F0D5FE4A210E
:104410004DF2074001F0D0FE00214DF2084001F0BE
:10442000CBFE5C214DF2094001F0C6FE00214DF2A9
:104430000A4001F0C1FE81214DF20B4001F0BCFEAB
:1044400000214DF20C4001F0B7FEA6214DF20D40C7
:1044500001F0B2FE00214DF20E4001F0ADFEE5216B
:104460004DF20F4001F0A8FE01214DF2104001F085
:10447000A3FE13214DF2114001F09EFE01214DF2E9
:10448000124001F099FE54214DF2134001F094FEC8
:1044900001214DF2144001F08FFE82214DF21540B2
:1044A00001F08AFE01214DF2164001F085FECA217D
:1044B0004DF2174001F080FE02214DF2184001F04C
:1044C0007BFE00214DF2194001F076FE02214DF2F3
:1044D0001A4001F071FE00E000E301214DF21B40A3
:1044E00001F06AFE02214DF21C4001F065FE34210C
:1044F0004DF21D4001F060FE02214DF21E4001F020
:104500005BFE67214DF21F4001F056FE02214DF285
:10451000204001F051FE84214DF2214001F04CFE7B
:1045200002214DF2224001F047FEA4214DF223402A
:1045300001F042FE02214DF2244001F03DFEB72180
:104540004DF2254001F038FE02214DF2264001F0E7
:1045500033FECF214DF2274001F02EFE02214DF215
:10456000284001F029FEDE214DF2294001F024FE11
:1045700002214DF22A4001F01FFEF2214DF22B40A4
:1045800001F01AFE02214DF22C4001F015FEFE2131
:104590004DF22D4001F010FE03214DF22E4001F0AE
:1045A0000BFE10214DF22F4001F006FE03214DF2CB
:1045B000304001F001FE33214DF2314001F0FCFDAD
:1045C00003214DF2324001F0F7FD6D214DF23340F1
:1045D00001F0F2FD00214FF4554001F0EDFD3321D3
:1045E0004DF2015001F0E8FD00214DF2025001F0C2
:1045F000E3FD34214DF2035001F0DEFD00214DF2C8
:10460000045001F0D9FD3A214DF2055001F0D4FDDE
:1046100000214DF2065001F0CFFD4A214DF2075026
:1046200001F0CAFD00214DF2085001F0C5FD5C21EA
:104630004DF2095001F0C0FD00214DF20A5001F089
:10464000BBFD81214DF20B5001F0B6FD00214DF272
:104650000C5001F0B1FDA6214DF20D5001F0ACFD62
:1046600000214DF20E5001F0A7FDE5214DF20F5053
:1046700001F0A2FD01214DF2105001F09DFD13212A
:104680004DF2115001F098FD01214DF2125001F050
:1046900093FD54214DF2135001F08EFD01214DF296
:1046A000145001F089FD82214DF2155001F084FD76
:1046B00001214DF2165001F07FFDCA214DF2175035
:1046C00001F07AFD02214DF2185001F075FD002134
:1046D0004DF2195001F070FD02214DF21A5001F017
:1046E0006BFD01214DF21B5001F066FD02214DF2E0
:1046F0001C5001F061FD34214DF21D5001F05CFDB4
:1047000002214DF21E5001F057FD67214DF21F505E
:1047100001F052FD02214DF2205001F04DFD8421A7
:104720004DF2215001F048FD02214DF2225001F0DE
:1047300043FDA4214DF2235001F03EFD02214DF234
:10474000245001F039FDB7214DF2255001F034FD20
:1047500002214DF2265001F02FFDCF214DF22750BE
:1047600001F02AFD02214DF2285001F025FDDE2145
:104770004DF2295001F020FD02214DF22A5001F0A6
:104780001BFDF2214DF22B5001F016FD02214DF2DE
:104790002C5001F011FDFE214DF22D5001F00CFDC9
:1047A00003214DF22E5001F007FD10214DF22F5044
:1047B00001F002FD03214DF2305001F0FDFC3321E8
:1047C0004DF2315001F0F8FC03214DF2325001F06E
:1047D000F3FC6D214DF2335001F0EEFC00214FF45B
:1047E000564001F0E9FC33214DF2016001F0E4FC98
:1047F00000214DF2026001F0DFFC34214DF2036034
:1048000001F0DAFC00214DF2046001F0D5FC3A2100
:104810004DF2056001F0D0FC00214DF2066001F080
:10482000CBFC4A214DF2076001F0C6FC00214DF29D
:10483000086001F0C1FC5C214DF2096001F0BCFC94
:1048400000214DF20A6001F0B7FC81214DF20B60AE
:1048500001F0B2FC00214DF20C6001F0ADFCA6218C
:104860004DF20D6001F0A8FC00214DF20E6001F048
:10487000A3FCE5214DF20F6001F09EFC01214DF2F9
:10488000106001F099FC13214DF2116001F094FCCD
:1048900001214DF2126001F08FFC54214DF21360A2
:1048A00001F08AFC01214DF2146001F085FC8221A7
:1048B0004DF2156001F080FC01214DF2166001F00F
:1048C0007BFCCA214DF2176001F076FC02214DF20B
:1048D000186001F071FC00214DF2196001F06CFCD0
:1048E00002214DF21A6001F067FC01214DF21B60BC
:1048F00001F062FC02214DF21C6001F05DFC3421EC
:104900004DF21D6001F058FC02214DF21E6001F0D5
:1049100053FC67214DF21F6001F04EFC02214DF265
:10492000206001F049FC84214DF2216001F044FC3B
:1049300002214DF2226001F03FFCA4214DF22360E0
:1049400001F03AFC02214DF2246001F035FCB72160
:104950004DF2256001F030FC02214DF2266001F09D
:104960002BFCCF214DF2276001F026FC02214DF2F5
:10497000286001F021FCDE214DF2296001F01CFCD1
:1049800002214DF22A6001F017FCF2214DF22B605A
:1049900001F012FC02214DF22C6001F00DFCFE2111
:1049A0004DF22D6001F008FC03214DF22E6001F064
:1049B00003FC10214DF22F6001F0FEFB03214DF2AC
:1049C000306001F0F9FB33214DF2316001F0F4FB6E
:1049D00003214DF2326001F0EFFB6D214DF23360A7
:1049E00001F0EAFB5521184601F0E6FBAA2120461A
:1049F00001F0E2FB5221284601F0DEFB082130469F
:104A000001F0DAFB0021384601F0D6FBCC21484604
:104A100001F0D2FB0021504601F0CEFB05214046BB
:104A200001F0CAFB70214FF4374001F0C5FB702143
:104A30004BF2017001F0C0FB01214FF4384001F04E
:104A4000BBFB03214BF6010001F0B6FB03214BF643
:104A5000020001F0B1FB03214BF6030001F0ACFBB7
:104A600002214FF43C4001F0A7FB00214BF601402E
:104A700001F0A2FB00214BF6024001F09DFBD0218A
:104A80004FF4494001F098FB02214CF6011001F06F
:104A900093FB50214CF6021001F08EFB50214CF696
:104AA000031001F089FB50214CF6041001F084FB47
:104AB00000214FF4545001F07FFB55214FF4685012
:104AC00001F07AFB4FF4885001F060FB782003F08E
:104AD0005DF94FF4245001F059FBF3E0A0F51341C8
:104AE0004FF480744FF4E06940F2022A4FF42746F5
:104AF00025397CD040F20775C91E79D04FF48877EC
:104B00004FF41C56083174D0113973D0A0F5A84168
:104B1000083970D0A0F5A8514FF4407705396BD013
:104B2000B1F5204169D0B1F5805167D0A0F58A4137
:104B300031397CD0091F7BD04045CED1E22001F035
:104B400025FB1D2001F016FB022001F013FB0420C1
:104B500001F010FB642003F019F9E02001F016FBCE
:104B6000012001F007FB0A2003F0F4F8E02001F037
:104B70000DFB032001F0FEFA0C2003F0EBF80120FE
:104B800001F004FB0A2003F0E5F8E62001F0FEFA4C
:104B90002F2001F0EFFAFF2001F0ECFAFF2001F0E6
:104BA000E9FAB02001F0F2FA202001F0E3FA002047
:104BB00001F0E0FA032001F0DDFA40F21F3001F0CD
:104BC000D9FA012001F0D6FA40F2DF1001F0D2FA52
:104BD000002001F0CFFAB42001F0D8FA042001F04F
:104BE000C9FA40F21F4001F0C5FA002007E076E064
:104BF00041E1F9E1A0E275E3FEE3FEE3FEE301F04B
:104C0000B9FA2E2001F0B6FA002001F0B3FA002024
:104C100001F0B0FA002001F0ADFA002001F0AAFA8C
:104C2000B62001F0B3FA022001F0A4FA01E0E6E3B5
:104C3000E6E34FF4037001F09DFA002001F09AFAC8
:104C4000172001F097FA152001F094FA002001F0E6
:104C500091FA002001F08EFAF02001F097FA03207B
:104C600001F088FA292001F091FAD02001F08EFAA3
:104C7000002001F07FFABE2001F088FA052001F043
:104C800079FAFE2001F076FA012001F073FA002093
:104C900001F070FA002001F06DFA002001F06AFACC
:104CA000B82001F073FA032001F064FA012001F04A
:104CB00061FABA2001F06AFA012001F05BFA64207F
:104CC00000F0F6FF0020FDF735FBFF490120C1F899
:104CD000BC025846FDF7F8FA21B0BDE8F08F47F660
:104CE000F001E52001F068FA2146012001F064FAA4
:104CF0004946022001F060FA41F23001032001F040
:104D00005BFA0021042001F057FA5146082001F017
:104D100053FA0021092001F04FFA00210A2001F086
:104D20004BFA00210C2001F047FA00210D2001F080
:104D300043FA00210F2001F03FFA0021102001F07A
:104D40003BFA0721112001F037FA0021122001F06F
:104D500033FA0021132001F02FFA0021072001F07F
:104D60002BFA41F29061102001F026FA40F227213F
:104D7000112001F021FA9D21122001F01DFA4FF4BB
:104D8000C851132001F018FA2521292001F014FA46
:104D90000D212B2001F010FA0721302001F00CFA30
:104DA00040F20331312001F007FA0321322001F0F3
:104DB00003FA40F20621352001F0FEF908213620E1
:104DC00001F0FAF940F20641372001F0F5F94FF40D
:104DD0004171382001F0F0F90721392001F0ECF998
:104DE00040F202613C2001F0E7F908213D2001F08A
:104DF000E3F90021502001F0DFF9EF21512001F00B
:104E0000DBF90021522001F0D7F940F23F11532085
:104E100001F0D2F93146602001F0CEF90121612084
:104E200001F0CAF900216A2001F0C6F900218020B2
:104E300001F0C2F90021812001F0BEF90021822099
:104E400001F0BAF90021832001F0B6F90021842095
:104E500001F0B2F90021852001F0AEF91021902077
:104E600001F0AAF94FF4C061922001F0A5F940F2D7
:104E700033110720FEE341F28F01EC2001F09CF991
:104E800041F23421EF2001F097F92146012001F091
:104E900093F94946022001F08FF941F230010320D5
:104EA00001F08AF90021042001F086F9514608201A
:104EB00001F082F90021092001F07EF900210A2089
:104EC00001F07AF901210C2001F076F900210D2082
:104ED00001F072F900210F2001F06EF9002110207D
:104EE00001F06AF90721112001F066F90021122072
:104EF00001F062F90021132001F05EF90121072081
:104F000001F05AF9322002F025FF41F290411020C1
:104F100001F052F940F22721112001F04DF9322021
:104F200002F018FF8A21122001F046F9322002F027
:104F300011FF4FF4D051132001F03EF90621292032
:104F400001F03AF90D212B2001F036F9322002F060
:104F500001FF0021202001F02FF90021212001F084
:104F60002BF9322002F0F6FE0021302001F024F966
:104F700040F20461312001F01FF940F20531322086
:104F800001F01AF90021352001F016F940F6094127
:104F9000362001F011F94FF40171372001F00CF9BE
:104FA00040F20131382001F007F92946392001F09B
:104FB00003F900213C2001F0FFF840F60A213D20D2
:104FC00001F0FAF8322002F0C5FE0021502001F075
:104FD000F3F8EF21512001F0EFF80021522001F009
:104FE000EBF840F23F114EE10021084601F0E4F8F1
:104FF0002146012001F0E0F84946022001F0DCF8EA
:1050000041F23001032001F0D7F80021042001F023
:10501000D3F85146082001F0CFF80021092001F013
:10502000CBF800210A2001F0C7F801210C2001F083
:10503000C3F800210D2001F0BFF800210F2001F07E
:10504000BBF8322002F086FE40F20111072001F089
:10505000B3F8322002F07EFE4FF48651102001F0AA
:10506000ABF80721112001F0A7F83946122001F012
:10507000A3F84FF43061132001F09EF8002129209D
:1050800001F09AF844F210012B2001F095F800216C
:10509000502001F091F8EF21512001F08DF800210E
:1050A000522001F089F840F23F11532001F084F8BA
:1050B0003146602001F080F80121612001F07CF888
:1050C00000216A2002E000000080404201F074F8F4
:1050D0000021802001F070F80021812001F06CF89F
:1050E0000021822001F068F80021832001F064F89B
:1050F0000021842001F060F80021852001F05CF897
:105100001021902001F058F80021922001F054F86D
:105110000121932001F050F83946952001F04CF818
:105120000021972001F048F80021982001F044F870
:1051300040F27311072080E341F21401E72001F0EF
:105140003BF82146012001F037F84FF400710220AE
:1051500001F032F841F23801032001F02DF85146F8
:10516000082001F029F80021092001F025F800218C
:105170000A2001F021F800210C2001F01DF8002187
:105180000D2001F019F800210F2001F015F8002181
:10519000102001F011F80721112001F00DF8002175
:1051A000122001F009F80021132001F005F8C820B1
:1051B00002F0D0FD41F29061102000F0FDFF40F2BE
:1051C0002721112000F0F8FF322002F0C3FD0C214E
:1051D000122000F0F1FF322002F0BCFD4FF400611C
:1051E000132000F0E9FF1121292000F0E5FF0B2139
:1051F0002B2000F0E1FF322002F0ACFD0021202046
:1052000000F0DAFF40F23F131946212000F0D4FFEE
:105210000021302000F0D0FF4FF48374214631206C
:1052200000F0CAFF0021322000F0C6FF4FF40171E8
:10523000352000F0C1FF41F20A61362000F0BCFFCA
:105240002946372000F0B8FF2146382000F0B4FF8F
:105250002946392000F0B0FF40F202413C2000F026
:10526000ABFF40F60F413D2000F0A6FF002150208B
:1052700000F0A2FFEF21512000F09EFF00215220FC
:1052800000F09AFF1946532000F096FF3146602047
:1052900000F092FF0121612000F08EFF00216A20C2
:1052A00000F08AFF0021802000F086FF002181208D
:1052B00000F082FF0021822000F07EFF0021832089
:1052C00000F07AFF0021842000F076FF0021852085
:1052D00000F072FF1021902000F06EFF4FF4C061CB
:1052E0009220FCE32146012000F066FF494602209F
:1052F00000F062FF41F23001032000F05DFF002169
:10530000042000F059FF40F20721082000F054FF6C
:105310000021092000F050FF00210A2000F04CFF7E
:1053200000210C2000F048FF00210D2000F044FF78
:1053300000210F2000F040FF142002F00BFD41F28D
:10534000B061102000F038FF0121112000F034FF7F
:105350000121172000F030FF4FF49C71122000F063
:105360002BFF4FF40061132000F026FF09212920B4
:1053700000F022FF09212A2000F01EFF0021A420B6
:1053800000F01AFF0021502000F016FFEF215120FD
:1053900000F012FF0021522000F00EFF40F23F11FA
:1053A000532000F009FF3146602000F005FF012185
:1053B000612000F001FF00216A2000F0FDFE0021C5
:1053C000802000F0F9FE0021812000F0F5FE002190
:1053D000822000F0F1FE0021832000F0EDFE00218C
:1053E000842000F0E9FE0021852000F0E5FE132175
:1053F000902000F0E1FE04E016E022E11EE2E5E28A
:105400009AE30021922000F0D7FE0321932000F0C0
:10541000D3FE3946952000F0CFFE40F273110720ED
:1054200000F0CAFE322008E10021072000F0C4FE8F
:10543000322002F08FFC4FF48E71122000F0BCFE7F
:105440000121A42000F0B8FE0F21082000F0B4FED6
:1054500008210A2000F0B0FE08210D2000F0ACFE6B
:105460002B462946302000F0A7FE0721312000F00E
:10547000A3FE40F20361322000F09EFE4D464946F5
:10548000332000F099FE5146342000F095FE0221B1
:10549000352000F091FE41F60F71362000F08CFEB1
:1054A0001946372000F088FE0021382000F084FEE5
:1054B0000021392000F080FE19463A2000F07CFEE1
:1054C00000213B2000F078FE07213C2000F074FE14
:1054D00000213D2000F070FE322002F03BFC012153
:1054E000072000F069FE0121172000F065FE322040
:1054F00002F030FC4FF4BD51102000F05DFE40F290
:105500001721112000F058FE4FF48F71122000F087
:1055100053FE4FF47061132000F04EFE00212A204C
:1055200000F04AFE0A21292000F046FE4FF49F7148
:10553000122000F041FE0021502000F03DFEEF213E
:10554000512000F039FE0021522000F035FE40F2DB
:105550003F11532000F030FE3146602000F02CFE59
:105560000121612000F028FE00216A2000F024FEC5
:105570000021802000F020FE0021812000F01CFE90
:105580000021822000F018FE0021832000F014FE8C
:105590000021842000F010FE0021852000F00CFE88
:1055A0001321902000F008FE3946922000F004FEFE
:1055B0000521932000F000FE0021952000F0FCFD65
:1055C0000021972000F0F8FD0021982000F0F4FD64
:1055D0002146012000F0F0FD2946022000F0ECFDFC
:1055E00041F23801032000F0E7FD0021042000F023
:1055F000E3FD00210C2000F0DFFD00210F2000F072
:10560000DBFD0021202000F0D7FD0021212000F04B
:10561000D3FD2121072000F0CFFD142002F09AFBDA
:105620006121072000F0C8FD142002F093FB40F236
:105630007311072000F0C0FD142002F08BFBFFF770
:1056400041BB0021084600F0B7FD0021084600F0EC
:10565000B3FD0021084600F0AFFD0021084600F030
:10566000ABFD0121A42000F0A7FD142002F072FB85
:10567000314600E0DDE0602000F09EFD55465146D9
:10568000082000F099FD4FF40571302000F094FDE2
:1056900043F21571312000F08FFD40F20461322099
:1056A00000F08AFD40F61661332000F085FD42F2DD
:1056B0001121342000F080FD4FF4A851352000F076
:1056C0007BFD48F20751362000F076FD41F207419C
:1056D000372000F071FD41F20341382000F06CFDED
:1056E0002021392000F068FD1A21902000F064FD8F
:1056F0000021102000F060FD0721112000F05CFD6A
:105700000021122000F058FD0021132000F054FD6C
:10571000142002F01FFB4FF4E661102000F04CFD56
:1057200040F23711112000F047FD142002F012FB67
:105730004FF4DC71122000F03FFD142002F00AFB50
:105740004FF47061132000F037FD80212A2000F013
:1057500033FD4821292000F02FFD142002F0FAFA31
:105760002146012000F028FD4946022000F024FDDA
:1057700041F23801032000F01FFD2946082000F007
:105780001BFD00210A2000F017FD00210C2000F075
:1057900013FD00210D2000F00FFD30210E2000F040
:1057A0000BFD0021502000F007FDEF21512000F0FB
:1057B00003FD0021522000F0FFFC40F23F11532076
:1057C00000F0FAFC3146602000F0F6FC0121612077
:1057D00000F0F2FC00216A2000F0EEFC1121902084
:1057E00000F0EAFC4FF4C061922000F0E5FC40F2CA
:1057F0000241932000F0E0FC0221942000F0DCFC48
:10580000142002F0A7FA0121072000F0D5FC142093
:1058100002F0A0FA6121072000F0CEFC40F27311E3
:10582000072000F0C9FC0021202000F0C5FC002169
:10583000212000F0C1FC222100207AE1002108464D
:1058400000F0BAFC0021084600F0B6FC142002F07B
:1058500081FA0021084600F0AFFC0021084600F064
:10586000ABFC0021084600F0A7FC0021084600F030
:10587000A3FC0121A42000F09FFC142002F06AFA8E
:105880003146602000F098FC40F60601082000F048
:1058900093FC40F203731946302000F08DFC012187
:1058A000312000F089FC0421322000F085FC4FF407
:1058B0008171332000F080FC3946342000F07CFCFC
:1058C00040F20311352000F077FC1F21362000F054
:1058D00073FC1946372000F06FFC0121382000F0DE
:1058E0006BFC0421392000F067FC1521902000F0AA
:1058F00063FC4FF48261102000F05EFC40F247210F
:10590000112000F059FC4FF4DE71122000F054FC1D
:105910004FF46061132000F04FFC782002F01AFA77
:105920002146012000F048FC4FF40071022000F0F5
:1059300043FC41F23001032000F03EFC08210A2024
:1059400000F03AFC00210C2000F036FC20210E2053
:1059500000F032FC00210F2000F02EFC002120205E
:1059600000F02AFC0021212000F026FC3D212A2005
:1059700000F022FC142002F0EDF92D21292000F086
:105980001BFC0021502000F017FC4DF2EF015120CC
:1059900000F012FC0021522000F00EFC40F23F11FA
:1059A000532000F009FC0021612000F005FC0021DB
:1059B0006A2000F001FC3946922000F0FDFB052131
:1059C000932000F0F9FB2146FFF7B4BB0121002032
:1059D00000F0F2FB0A2002F0BDF941F2286110202C
:1059E00000F0EAFB0E21122000F0E6FB40F6392120
:1059F000132000F0E1FB0A2002F0ACF94021112055
:105A000000F0DAFB5021152000F0D6FB0A2002F04E
:105A1000A1F91E21122000F0CFFB0A2002F09AF912
:105A20004FF4B151102000F0C7FB42F6392113208A
:105A300000F0C2FB0A2002F08DF92146012000F09F
:105A4000BBFB3946022000F0B7FB41F238010320CE
:105A500000F0B2FB5146082000F0AEFB08210A20FE
:105A600000F0AAFB0021302000F0A6FB40F202412A
:105A7000312000F0A1FB4FF48371322000F09CFB39
:105A800040F20351332000F097FB4FF48271342031
:105A900000F092FB40F20131352000F08DFB2946E9
:105AA000362000F089FB40F20531372000F084FBFE
:105AB0004FF40271382000F07FFB40F60B71392063
:105AC00000F07AFB0221412000F076FB3146602095
:105AD00000F072FB0121612000F06EFB00E0CDE0E0
:105AE0004FF40471902000F067FB4FF48571922011
:105AF00000F062FB0421932000F05EFB2146A02011
:105B000000F05AFB0121072000F056FB212107205D
:105B100000F052FB2321072000F04EFB3321072029
:105B200000F04AFB40F23311072000F045FB002152
:105B3000A02000F041FB82E53021152000F03CFB65
:105B400010219A2000F038FB2021112000F034FBB6
:105B500043F22841102000F02FFB0221122000F018
:105B60002BFB41F23801132000F026FB282002F025
:105B7000F1F81221084600F01FFB282002F0EAF895
:105B800043F22041102000F017FB43F238011320AC
:105B900000F012FB462002F0DDF80021302000F07A
:105BA0000BFB40F20241312000F006FB40F20731CE
:105BB000322000F001FB4FF44171332000F0FCFA79
:105BC0000421342000F0F8FA40F20141352000F0C1
:105BD000F3FA2946362000F0EFFA40F2053137207B
:105BE00000F0EAFA4FF4C2631946382000F0E4FAF4
:105BF0001946392000F0E0FA2146012000F0DCFAD5
:105C00003946022000F0D8FA41F23001032000F0BA
:105C1000D3FA40F60801082000F0CEFA08210A2045
:105C200000F0CAFA3146602000F0C6FA0121612076
:105C300000F0C2FA4FF49F71902000F0BDFA2146A7
:105C4000922000F0B9FA2146932000F0B5FA4FF403
:105C50004051A02000F0B0FA1021A32000F0ACFACF
:105C60000121072000F0A8FA2121072000F0A4FA62
:105C70002321072000F0A0FA3321072000F09CFA2E
:105C800040F23311A0E608B54FF0D840B0F88000DC
:105C9000ADF80000BDF8000008BD10B500F076FAC0
:105CA000052002F073F8BDE81040FFF7ECBF0000DC
:105CB00010B50246BE2000F069FA052000F05AFA3D
:105CC000104604F002FB9FED0C1B53EC112B04F06B
:105CD0000FFB04F0CDFA80B200F04CFA012000F086
:105CE00049FAFF2000F046FA002000F043FABDE830
:105CF0001040002000F03EBA6666666666660440A4
:105D0000F0B57F4D00232946AA79898846F6040715
:105D100041F66314012A01D02AB11DE0B9421BD01B
:105D2000A14202D118E0A14216D1082814D2DFE81E
:105D300000F00406080A0C0E101206200CE00720E2
:105D40000AE0042008E0052006E0012004E000202D
:105D500002E0032000E00220A1F5134C45F21032CE
:105D600045F21056BCF1410C07D0B94205D0914222
:105D700003D0B14201D0A1427BD1082812D2DFE882
:105D800000F0110406080A0C0E1080230AE04023DC
:105D900008E0C02306E0202304E0602302E0A02303
:105DA00000E0E023B14202D14FF4585000E0362029
:105DB000914205D0B14203D0A14201D043F0080383
:105DC000B94201D143F00203194600F0F5F9AA885F
:105DD000A2420AD098062888698802D5884202D350
:105DE00003E0884201D9298068806889B24241D1A4
:105DF00000F0CCF9002000F0BDF96889401C80B2A9
:105E000000F0C4F9002000F0B5F96889801C80B268
:105E100000F0BCF92888401EC0F30F2000F0AAF95A
:105E20006889C01C80B200F0B1F92878401EC0B269
:105E300000F0A0F9A88900F0A9F9002000F09AF973
:105E4000A889401C80B200F0A1F9002000F092F96E
:105E5000A889801C80B200F099F96888401EC0F3C0
:105E60000F2000F087F9A889C01C80B200F08EF9DD
:105E700022E028E000F08AF9002000F07BF9002001
:105E800000F078F92888401EC0F30F2000F072F966
:105E90002878401EC0B200F06DF9A88900F076F9AC
:105EA000002000F067F9002000F064F96888401EC7
:105EB000C0F30F2000F05EF9A878BDE8F040401E66
:105EC000C0B200F057B9082812D2DFE800F004068B
:105ED00008110A0C0E1030230AE0102308E02023DA
:105EE00006E0382304E0282302E0182300E008231A
:105EF000BDE8F040032043F4805100F05DB900009C
:105F00000C0800202DE9F043DFF844810C460246DE
:105F1000050AB8F804104046A1F5134340894FEA3A
:105F20001429413B17D0A1F5A643103B13D0464698
:105F3000A1F5D047B3793688B61A761E043F0ED045
:105F4000A1F5C857633F1ED0A1F5AA47103F57D00F
:105F5000012B72D072E000F019F9284605E0012B00
:105F600000D1B2B200F012F9100A00F003F9D0B279
:105F700000F000F9B8F80C0000F008F9484600F00D
:105F8000F9F8E0B22AE06BB300F000F9284600F01F
:105F9000F1F8D0B200F0EEF8B8F80000401EC0F3FF
:105FA0000F2000F0E7F898F80000401EC0B200F0A3
:105FB000E1F8B8F80C0000F0E9F8484600F0DAF82B
:105FC000E0B200F0D7F8B8F80200401EC0F30F208E
:105FD00000F0D0F898F80200401EC0B2BDE8F043CF
:105FE00000F0C8B8B2B200F0D1F8002000F0C2F85A
:105FF000002000F0BFF8100A00F0BCF8D0B2D6E7DD
:1060000000F0C4F8284600F0B5F8B8F80A00401CC3
:1060100080B200F0BBF8D0B200F0ACF8B8F80C00D9
:1060200000F0B4F8484600F0A5F8B8F80C00401CA1
:1060300080B200F0ABF8A4E7FFE7B2B2114600F07F
:10604000BBF8B8F80C002146BDE8F04300F0B4B846
:106050000C0800202DE9F84F82461F460C468B465F
:10606000580700D0012000EBD700790810FB01F0A1
:10607000203AC0B202F0FF090026009041E00C2F48
:1060800010D0102F12D0182F3ED1204909EBC90093
:1060900001EB80004FF00008855D28060AD51C48FA
:1060A00002880BE009EB49001A49F1E71A4901EBB4
:1060B0000910EFE70A9828B915484288214650464A
:1060C000FCF7D2F96806050E1448641CA4B2408897
:1060D000A04219D9A4EB0B00B84209D10AF1010082
:1060E0001FFA80FA0D485C46018851450CD906E03C
:1060F00008F1010000F0FF08B8F1080FCDD3761CBD
:10610000F6B200988642BAD3BDE8F88F5EAF0008B9
:1061100030000020FAA400086EA900080C08002036
:106120002DE9F84F044600F0FF0810190D46DDE98F
:106130000A761FFA80FA58191FFA80F94FF0000BFF
:1061400011E0544502D3E819444685B24D450FD2BB
:106150003B4629462046CDF800B0FFF77BFF04EB15
:10616000570084B2761C3278A2F120005E28E8D96C
:10617000BDE8F88F01B5BDF80000ADF80000BDF82E
:1061800000004FF0D841A1F8800008BD01B5BDF86E
:106190000000ADF80000BDF800004FF0D841A1F8B4
:1061A0007E0008BD03484FF0D8410089A1F87E0069
:1061B000704700000C0800204FF0D84222F87E0FF4
:1061C000518070477CB50121202000F075F8012036
:1061D0008DF8040000228DF8062003218DF80510AB
:1061E000074D4FF4C0648DF80700009469462846B7
:1061F000FBF7E8FF21462846FCF730F87CBD00009D
:1062000000140240FEE7704730B50F23C2780178D2
:106210000125FAB1144A126801F1E02102F4E062AA
:10622000C2F5E062C2F30722C2F10404D34042780F
:10623000A24084781C401443220181F80024007895
:1062400000F01F018D404009800000F1E020C0F8FF
:10625000005130BD01F01F0085404809800000F169
:10626000E020C0F8805130BD0CED00E00249084349
:1062700002490860704700000000FA050CED00E0DC
:10628000014800F05FBC00001802002010B504A017
:10629000FAF7D0F8BDE81040064800F053BC000003
:1062A0004F54475F48535F49525148616E646C6573
:1062B000720D0A0018020020044A0029116801D05A
:1062C000014300E081431160704700003038024014
:1062D000044A0029116801D0014300E081431160A4
:1062E0007047000034380240044A0029116801D088
:1062F000014300E0814311607047000038380240DC
:10630000044A0029116801D0014300E08143116073
:106310007047000040380240044A0029116801D04B
:10632000014300E08143116070470000443802409F
:1063300070B5204B1968204C11F00C0104D0661088
:10634000042903D0082903D004601BE0066019E08B
:10635000184A121F1168C1F38055116801F03F01FE
:1063600015B1B6FBF1F101E0B4FBF1F1146812686C
:10637000C4F388146143C2F30142521C5200B1FBC2
:10638000F2F1016019680F2202EA11110B4A545C04
:106390000168E14041601C68072505EA9424145D0A
:1063A00021FA04F484601B6805EA5333D25CD140BF
:1063B000C16070BD083802400024F4004000002095
:1063C0000CB50022274900920192086840F4803001
:1063D00008604FF4A043086800F400300190009872
:1063E000401C0090019810B900989842F3D10868B9
:1063F000800334D5012001901A484030026842F0F1
:10640000805202601848026842F440420260154817
:10641000083002680260026842F4004202600268CA
:1064200042F4A0520260031F104A1A600A6842F048
:1064300080720A600A689201FCD50D4940F205722B
:106440000A60016821F003010160016841F0020166
:1064500001600168C1F381010229FAD10CBD0192EA
:106460000CBD000000380240007000400854400796
:10647000003C02404FF0E0210428086903D020F0DE
:1064800004000861704740F00400FAE710B503F01B
:1064900021FC012803D0BDE8104003F09BB810BDDB
:1064A000124810B5016841F470010160104801689C
:1064B00041F0010101600E4A0021083211600268BA
:1064C0000C4B1A400260031D0B4A1A60026822F44A
:1064D0008022026006480C300160FFF771FF03491B
:1064E0004FF000608039086010BD000088ED00E0CA
:1064F00000380240FFFFF6FE1030002410B50A4CB1
:106500000121204600F04FF8012807D107490A6809
:106510004868521C40F100000A6048602046BDE80F
:106520001040012100F032B8000400402800002093
:106530007FB50D46044601210220FFF7E1FE0194DC
:10654000ADF800500024104DADF80240ADF8084001
:106550006946284600F03CF801221146284600F022
:106560002EF80121284600F014F81D208DF80C00AB
:1065700001208DF80D008DF80E408DF80F0003A856
:10658000FFF742FE7FBD000000040040C9430182C6
:1065900070470029018802D041F0010101E021F09B
:1065A00001010180704702460020138A92890B4244
:1065B00002EA010202D0002A00D001207047002A1E
:1065C000828901D00A4300E08A438281704700003B
:1065D00030B50288164C174DA0420DD0A8420BD002
:1065E000B0F1804F08D0144B984205D0134B98421D
:1065F00002D0134B984203D122F070034A881A4309
:10660000104B984206D0104B984203D022F44073AE
:106610000A891A4302804A68C2620A880285A04237
:1066200001D0A84201D1897A01860121818230BD41
:106630000000014000040140000400400008004048
:10664000000C0040001000400014004070B5154CD4
:1066500040F22551204600F035F800280ED02046A3
:1066600000F0BEF8104AC1B21088030406D44404F6
:106670004FF0000306D50A2901D0138070BD40F405
:1066800000400DE00D2909D0C0F30D04074D401C5A
:1066900080B229551080C728EFD870BD40F48040E3
:1066A000108070BD00100140380000201A08002042
:1066B0000029818902D041F4005101E021F4005108
:1066C0008181704770B501F01F0501260024C1F3D8
:1066D000421306FA05F2012B0FD0022B0FD0838A4A
:1066E0004FEA11210088134206FA01F600EA06007B
:1066F00001D000B10124204670BD8389F0E7038AF0
:10670000EEE710B5C1F3421301F01F040121A140CF
:10671000012B07D0022B07D01430002A026805D0C5
:106720000A4304E00C30F8E71030F6E78A430260D1
:1067300010BD00007FB50446008A0D46C98820F4CC
:10674000405001432182A08941F20C618843A9880D
:106750002A8911436A8902431143A181A08A20F446
:106760004071A8890843A0826846FFF7E1FD1A48F6
:10677000844202D01948844201D1039800E0029873
:10678000A189090400EBC00101EB0010296801D5C3
:10679000490000E08900B0FBF1F06422B0FBF2F1A7
:1067A00009010B096FF018056B4300EB8300A38907
:1067B0001D044FF0320306D503EBC000B0FBF2F02E
:1067C00000F0070005E003EB0010B0FBF2F000F072
:1067D0000F00084320817FBD0010014000140140DC
:1067E0008088C0F30800704710B5D0F8E4255268DF
:1067F0009047002010BD10B5134600240A462146DC
:10680000FBF70EFA204610BD10B5134600240A46C9
:106810002146FBF74BFA204610BD10B504468021F7
:10682000FBF728FA00212046FBF724FA2046BDE8B2
:10683000104000F045BF10B5C0F894230323C0F802
:10684000902380F81131134600240A462146FBF7B5
:10685000E7F9204610BD70B505460024052085F8EF
:1068600011012346224621462846FBF7D9F928463E
:1068700000F026FF204670BD10B5C0F83C21022371
:10688000C0F8382180F81131134600240A46214609
:10689000FBF70CFA204610BD70B505460024042015
:1068A00085F811012346224621462846FBF7FEF9CA
:1068B000284600F005FF204670BD000070B5054673
:1068C00041B1D5F8E40542698AB395F8120103286D
:1068D00046D047E095F81101002605F58E74022890
:1068E00033D1E169A06881420FD9081AE061E878E4
:1068F000012803D1D4E902100844E060A08BE168CC
:1069000082B22846FFF780FF1FE0216AB1FBF0F258
:1069100000FB121262B981420AD3606A814207D237
:10692000002211462846FFF76FFF66620DE016E071
:10693000D5F8E405C16829B195F81201032801D101
:10694000284688472846FFF786FF95F81601012854
:1069500008D1054800682969486085F8166101E09A
:1069600028469047002070BD6C01002070B5054698
:1069700041B1D5F8E4058269FAB195F8120103280E
:106980002AD02BE095F8110105F55D74032825D177
:10699000A168E069884211D9401AE061E8780128CD
:1069A00002D1E0680844E060E069884200D308460C
:1069B00082B22846E168FFF71EFF0FE0D5F8E40534
:1069C000016929B195F81201032801D128468847A9
:1069D0002846FFF761FF01E028469047002070BD80
:1069E00038B5044648880D46010A04295AD2DFE822
:1069F00001F059021420D4F8EC15A0780A68694611
:106A000090470146E888402803D094F812010128F5
:106A100037D10820ADF8000037E0D4F8E415A078AD
:106A20008A6A69469047014602204870C4F8F0150A
:106A300027E0C0B2062835D2DFE800F003080D12C7
:106A4000171CD4F8EC15A0784A6817E0D4F8EC15B8
:106A5000A0788A6812E0D4F8EC15A078CA680DE036
:106A6000D4F8EC15A0780A6908E0D4F8EC15A07801
:106A70004A6903E0D4F8EC15A0788A696946904722
:106A80000146BDF8000000280BD0EA88002A08D093
:106A900080B2824200D90246ADF800202046FFF7BE
:106AA000EBFE38BD29462046FFF7B7FE38BD70B56E
:106AB000002300281DD00446002502E06D1CEDB225
:106AC000641C2678002EF9D1022404EB45041480BE
:106AD000CC545B1C0322CA5400245B1C06E0CA543D
:106AE0005B1CDAB28C54521CD3B2401C0278002AD0
:106AF000F5D170BD2DE9F0411D4617468846044684
:106B0000069E00F011FC04F2E452414682E8E000E7
:106B10002046FBF75FFAD4F8E80500688047204676
:106B2000BDE8F04100F0EEBB10B5D0F8E415096AFD
:106B30008847002010BD10B5D0F8E415496A884791
:106B4000002010BD2DE9F0470646002400F059FF53
:106B500000287CD0304600F05DFF050078D0280387
:106B600003D53046FBF728F90446680303D53046C1
:106B7000FBF7BCF80443A8074FF0000A02D5F16800
:106B800002204861DFF804814FF00109002D18DA76
:106B9000B07A30B1D6F80C01D6F80C1120F0030011
:106BA00008603069416821F001014160D8F80000B7
:106BB000816930468847F1684FF00040486144F0F1
:106BC0000104280503D53046FBF78AF9044328075A
:106BD00009D5D8F80000C16830468847F168082018
:106BE000486144F00104E80603D53046FBF73AF962
:106BF0000443E80403D53046FBF7AAF90443A8048C
:106C000019D5304600F0E2FCF068C768304600F065
:106C1000DFFE03282FD086F80290402127F4705021
:106C2000B18000F5A050F168C860F1684FF40050E1
:106C3000486144F00104E8020DD5D8F80000C169AC
:106C400030468847F1684FF48010486101E00FE05A
:106C50000FE044F00104A8020AD5D8F80000016A48
:106C600030468847F1684FF40010486144F0010451
:106C70002046BDE8F08786F802A04FF4007127F4A3
:106C80007050B18000F51050CDE700006801002081
:106C900090F8CC250A7090F8CD254A7090F8CE2552
:106CA00090F8CF3502EB03224A8090F8D02590F877
:106CB000D13502EB03228A8090F8D22590F8D335A3
:106CC00002EB032292B2CA800121C0F8402180F871
:106CD0001111704710B50023044640221946FAF7F7
:106CE00081FF0023402280212046FAF77BFF01200C
:106CF00084F81201D4F8E815A07849688847002084
:106D000010BD10B50446D0F8E8050069804703209F
:106D100084F81201002010BD10B5D0F8E415C9693F
:106D200001B18847002010BD10B50446D0F8E40535
:106D3000026820469047D4F8E80580688047002024
:106D400010BD000070B50A461A4D897804462970B6
:106D5000012905D894F81201022807D003280CD085
:106D60002046BDE870401146FFF757BDA1B184F839
:106D70001011032084F812010BE091B194F8100176
:106D8000884209D001462046FFF72EFD297884F875
:106D900010112046FFF7C8FF2046BDE87040FFF7FE
:106DA0007BBD022084F8120184F810112046FFF701
:106DB0001BFDF1E77001002010B504464888012250
:106DC00001280FD0022831D1888810F0FF0F2DD173
:106DD00021694968000A06281FD2DFE800F01E0B6F
:106DE0000F13171BC4F81821D4F8E4058268204655
:106DF000904716E021F0700110310EE021F0700193
:106E000020310AE021F07001303106E021F07001FC
:106E1000403102E021F0700150310548016084F8F2
:106E200016212046BDE81040FFF736BD10BD00001A
:106E30006C0100201CB504466946FFF729FF9DF848
:106E4000002012F01F010AD001290DD0022910D014
:106E500002F080012046FAF70DFF00201CBD6946B4
:106E6000204600F00BF8F8E76946204600F0E8F805
:106E7000F3E76946204600F079F8EEE72DE9F041A6
:106E80004A78002701260A2A42D2DFE802F03B5561
:106E90004152410805412A27FFF7A2FD61E004465F
:106EA0008888C8B9C888B8B9887800F07F0594F890
:106EB0001201032810D084F8145129462046FAF70D
:106EC000D1FE2046FFF7E8FC1DB1022084F8120134
:106ED00047E084F8126144E0204619E0FFF732FFF2
:106EE0003FE0CA88012A13D190F81221022A02D069
:106EF000032A0DD102E001221B4917E0012200F50F
:106F0000887113E090F81221022A04D0032A02D0DB
:106F1000FFF783FC25E014490839CE60D0F818212A
:106F20000AB10322CA6010490222091DFFF7A4FC1E
:106F300017E0FFF741FF14E0044690F81201022821
:106F400001D00328C8D1488801280AD10020C4F8FC
:106F50001801D4F8E4058268204690472046FFF7E0
:106F60009BFC3846BDE8F0817801002070B50D46E5
:106F7000044609796878002658B3012816D00328FA
:106F800031D194F8120102282FD0032827D1688824
:106F900028B921B1802902D02046FAF76BFED4F837
:106FA000E40529468268204690470EE094F81201D5
:106FB00002281AD0032812D16888A0B929B18029E3
:106FC00003D02046FAF7F2FDE9E72046FFF764FC1C
:106FD00009E094F81201022807D003280DD02946B1
:106FE0002046FFF71AFC304670BD0029FBD08029EF
:106FF000F9D02046FAF73EFEF5E7104A08064FF0B2
:1070000000034FF0010508D501F07F0000EB800080
:1070100004EBC00090F81E0105E001EB810004EBD9
:10702000C00090F8760308B1556000E05360034952
:107030000222091D2046FFF71FFCD4E77001002043
:1070400070B5054690F8120100260C4603280DD1B4
:10705000207901280AD8D5F8E405826828469047A7
:10706000E08830B92846FFF717FC02E02846FFF712
:10707000D4FB304670BD10B590F8121180F8131192
:10708000042180F81211D0F8E805C068804700207C
:1070900010BD000010B50A46024903A0FFF707FD26
:1070A000004810BDC05D002056435020436F6E66FF
:1070B0006967000001A0F9F7BDB9000056435020F0
:1070C000496E74657266616365207374617274657C
:1070D000642E0D0A0000000001A0F9F7ABB9000012
:1070E0005553422044657669636520436F6E6E6533
:1070F000637465642E0D0A001220088000487047F2
:107100000C01002001A0F9F795B900005553422069
:1071100044657669636520446973636F6E6E656369
:107120007465642E0D0A000018B1012803D003A075
:1071300002E00BA000E013A0F9F77CB95553422000
:10714000446576696365204C696272617279207664
:10715000312E312E3020205B3F3F5D0D0A000000B4
:1071600055534220446576696365204C69627261BB
:1071700072792076312E312E3020205B48535D0D00
:107180000A00000055534220446576696365204C2F
:107190006962726172792076312E312E3020205B47
:1071A00046535D0D0A00000001A0F9F743B9000045
:1071B00044657669636520526573756D65640D0A73
:1071C0000000000001A0F9F735B9000044657669B8
:1071D000636520496E2073757370656E64206D6FF2
:1071E00064652E0D0A00000001A0F9F723B9000024
:1071F000555342445F5553525F496E69740D0A00FE
:1072000010B50A46024903A0FFF751FC004810BD23
:10721000C05D002056435020496E746572666163FC
:107220006500000004200880004870470801002025
:1072300010B50A46024903A0FFF739FC004810BD0B
:10724000C05D002053544D6963726F656C65637453
:10725000726F6E69637300000A4610B5044920B16D
:1072600004A0FFF724FC024810BD0BA0F9E70000C2
:10727000C05D002053544D333220566972747561DD
:107280006C20436F6D506F727420696E20465320DE
:107290004D6F64650000000053544D333220566931
:1072A000727475616C20436F6D506F727420696EDB
:1072B000204853206D6F6465000000000A4610B539
:1072C000044920B104A0FFF7F2FB024810BD06A05C
:1072D000F9E70000C05D0020303030303030303011
:1072E0003035304300000000303030303030303046
:1072F00030353042000000004320088000487047CD
:10730000A801002008B543208DF8000000208DF86A
:10731000010003208DF8020001208DF8030068466B
:10732000FEF772FF08BD00007CB51CA0F9F782F8DB
:1073300001210846FEF7C0FF01218020FEF7C8FFAB
:107340004FF4C050009002208DF8040000248DF806
:10735000064003208DF80500134E8DF8074069465E
:107360003046FAF72FFF4FF40040012500908DF8CA
:1073700004508DF8074069463046FAF723FF0B4862
:10738000C0F8BC520A220B213046FAF757FF0A22F6
:107390000C213046FAF752FF7CBD000053544D33A8
:1073A00032463430370D0A000000024000004042EF
:1073B00000F0D0BC00F0EABC70B50446017A0025AC
:1073C000C068012915D0C16841F04001C160204664
:1073D00000F0C8F8617A4FF4341009B14FF474101A
:1073E000E16888631420FFF7E3FFE078012819D0F3
:1073F00020E0816B627A21F480310AB141F480117E
:107400008163E068C16821F0401121F42021C1604E
:10741000204600F0A7F8E07801280BD1E1682A2087
:107420008860E2E7E068816821F01E010A3141F0DE
:1074300020018160284670BD2DE9F04104460027F7
:10744000D0F80C013D462B4607602069016821F405
:10745000C0510160E07A4026012826D10321204650
:1074600000F0C9FAE06880214162E06866F31F43DA
:1074700061F30F03836203EB1342284662F30F00AC
:1074800061F31F40E168C1F8040100EB104161F3B2
:107490000F00E16865F31F40C1F8080100EB1041DF
:1074A00061F30F00E168C1F80C011021204600F0E3
:1074B0006DFA204600F04CFA2069056120694561AB
:1074C00021694FF0FF3088612069C56100204FF0CD
:1074D0009042FF2313E004EB800CDCF818E0DEF8A8
:1074E0000010002901DA114600E02946CEF800100C
:1074F000DCF818100D61DCF818108B60401C617806
:107500008142E8D8002013E004EB800CDCF854E062
:10751000DEF80010002901DA114600E02946CEF815
:107520000010DCF854100D61DCF854108B60401C26
:1075300061788142E8D82069016941F48071016174
:10754000E078012808D1032066F38A00216940F41D
:10755000803066F359400863204600F0CDF9384684
:10756000BDE8F081F8B50026044637460096124D76
:107570000320FFF71FFFE068006900907F1CAF4207
:1075800001D90020F8BD00980028F1DA0098002108
:1075900040F0010000900098E2681061E068026924
:1075A0000092491CA94202D8009AD207F7D10320C1
:1075B000FFF700FF3046F8BD400D0300C068002211
:1075C000816821F0010181601046704710B50169A2
:1075D0000024896883691A68C1F3410129B101292E
:1075E00003D0022904D0032905D16FF30A0202E077
:1075F0006FF30A02D21C1A600069416841F480717D
:107600004160204610BDF0B54B7800254A69012B3A
:1076100014D00B7800EB8304636D1E681B69E2B322
:107620008A684A6162F3060323F4C012636D02F5AF
:1076300000221A61C278012A32D037E083691F68BC
:107640001C6932B18E68B24208D966F306044E61F5
:1076500006E024F07F0222F4C01203E062F3060485
:1076600024F4C01202F500221A61C278012A05D161
:107670000C780A6900EB8404A469626147F0044253
:107680001A60C278CAB94A69BAB10A780069012198
:107690009140426B0A4342630FE0FFE70A7AC1E779
:1076A0000B780A6900EB83035B6D5A61097846F039
:1076B000044200EB8100406D02602846F0BD0000EE
:1076C000426D07491161C178012908D1426D00F26C
:1076D000CC515161406D01684FF0802101607047CD
:1076E000180008C0F0B506460D7800204F78012438
:1076F000AC40034606EB8502012F18D0526D64F3AF
:107700001F43146825040DD40D8965F30A04CD7850
:10771000897965F3934461F3995444F0805141F4BD
:10772000004111603169CA691A43CA61F0BD9269AA
:1077300064F30F03E5E710B503464C780A780020A0
:1077400003EB8202012C09D0526D1368C97823F42F
:107750000013032904D0022902D003E09269F4E760
:1077600043F08053136010BD70B50B7804460025BC
:107770004E7801229A40284604EB8301012E09D05D
:10778000496D62F31F400D602169CA698243CA6175
:10779000284670BD896962F30F00F4E702464B7812
:1077A0000978002002EB8101012B05D0496D0A68A0
:1077B00042F400120A6070478A691168002901DAF0
:1077C00041F0804141F4001111607047F0B54B78F1
:1077D0000A7800240125D1F814C000EB8202012BA5
:1077E00017D0566D32683369BCF1000F64D08D68D4
:1077F0000CEB05077F1EB7FBF5F767F3DC43C3F31C
:10780000C9476F4367F312033361C378012B59D023
:107810005EE097693A683E69BCF1000F0DD08B6855
:107820006CF312069C44ACF1010CBCFBF3F363F364
:10783000DC46CB78012B05D008E06FF3120665F328
:10784000DC4603E026F0C04606F100563E61C378F0
:10785000012B0ED0CB78012B12D04B69BBB10B782A
:107860009D4003695E6B2E435E63CB78012B07D08E
:107870000DE00D780B6900EB8505AD696B61F4E7F0
:1078800003699B681B0ADB070CD042F080520B781F
:1078900042F0044200EB83039B691A60CA78012A14
:1078A00003D026E042F00052F1E78A8A93B20A78C8
:1078B000C96800F04EF91CE08F6867F3120365F3A6
:1078C000DC43A1E70D780B6900EB85056D6D6B61FD
:1078D000CB78012B06D14B7913B142F0005201E075
:1078E00042F08052097842F0044200EB8100406D82
:1078F00002602046F0BD000030B5C368002211468A
:107900009A61C4686FF080436361C568541E6C60FF
:10791000C4686361C468094BA361C37803B91021CB
:10792000C06841F4872141F00811836941F4401196
:107930008B430B438361104630BD0000000800807C
:10794000C0680022816841F00101816010467047E3
:1079500038B50024024621460094009840F01000FB
:1079600000900098D36818610748D26813690093A3
:10797000491C814202D8009BDB06F7D40320FFF7A5
:1079800019FD204638BD0000400D030038B5002425
:10799000034622460094009840F020000090009892
:1079A00061F38A1000900098D96808610748D96887
:1079B0000B690093521C824202D8009B9B06F7D4AD
:1079C0000320FFF7F7FC204638BD0000400D030000
:1079D0000146002009698968C1F3410139B10129D3
:1079E00003D0022905D0032900D1022070470320CB
:1079F0007047012070470069026861F3010202606C
:107A00007047C068406910F0010F01D00020704736
:107A100001207047C068416980690840704700696B
:107A20008169C069084080B2704700698169C06996
:107A30000840000C704700EB8101496D89680069BE
:107A400040690840704710B504460023D21C9008D6
:107A5000D4F8D02003E0146841F8044B5B1C834247
:107A6000F9D3084610BD000070B500220123C27092
:107A700040268370154614468680012901D061B1E5
:107A800014E0C3720821017004214FF0A04241703C
:107A90009115C1800221017208E0C4720C210170AD
:107AA000062141701F4A4FF4A061C18002F50061B8
:107AB000C0E9032100210AE002EB411303F510663F
:107AC00000EB810403F53063A661491C63654378CC
:107AD0008B42F1D802F5806141614031C0F8CC1091
:107AE000002108E002EB411300EB810403F5A063E1
:107AF000491CC4F8903003788B42F3D8002108E089
:107B000002EB013300EB810403F58053491CC4F8F8
:107B1000D03003788B42F3D802F56062C0F80C21B4
:107B2000284670BD0000044010B5C3680024D86822
:107B3000012920F0C04201D019B104E042F0005206
:107B400001E042F08042DA603220FFF731FC20464B
:107B500010BD30B505460020EC78002C0CD105EBAB
:107B60008202DB1C9B08D2F8D02003E051F8045BB2
:107B70001560641C9C42F9D330BDFEE710B50428A3
:107B800032DD1A4C202802D021282DD11BE0CA78E2
:107B9000086862F31F602060087920714A79627179
:107BA0008979A171014612A0F8F744FC617916A009
:107BB000F8F740FCA1791BA0F8F73CFC20A0216855
:107BC000F8F738FC10E0207808702088000A487028
:107BD0002068000C88702068000EC8702079087139
:107BE00060794871A0798871002010BDD000002014
:107BF0006C696E65636F64696E672E666F726D6126
:107C0000743A25640D0A00006C696E65636F6469DF
:107C10006E672E706172697479747970653A256443
:107C20000D0A00006C696E65636F64696E672E648F
:107C3000617461747970653A25640D0A0000000072
:107C40006C696E65636F64696E672E6269747261D8
:107C500074653A25640D0A00F0B500231E46124DE6
:107C60001AE02A88C45C170414D4570404D50A2CDB
:107C70000FD142F4004215E00D2C11D0C2F30D07D4
:107C8000DFF828C0521C92B20CF807402A80C72A9D
:107C900000D92E805B1CDBB28B42E2D30020F0BD0A
:107CA00042F480422A80F5E7CC000020F85C0020F6
:107CB000074A064B11685854491C1160B1F5006F12
:107CC00001D100201060002070470000FF5E0020FE
:107CD00088010020002070470020704703B40198FD
:107CE0004100009850EAC12018BF04204A0D18BF77
:107CF00040F0010040F2FF72B2EB515F08BF40F06C
:107D00000200012808BF052002B0704730380A2859
:107D100001D20120704700207047704710B504461B
:107D20000420FEF7A7FB0A484FF47A71047014FB95
:107D300001F1012242804FF0E020026942F002028C
:107D400002614161016941F00101016110BD000062
:107D50003400002070B5044601F0BCFF01280CD0AF
:107D6000094D6888844203D3B4FBF0F001F0A6F912
:107D70006888B4FBF0F100FB11444FF47A70604363
:107D8000BDE8704000F002B83400002070B54FF03C
:107D9000E02500216C69094AAB6912785043AA6951
:107DA0009A42FCD002D2A3EB020302E0A4EB02064B
:107DB0003344194413468142F1D370BD340000208E
:107DC00003490A885206FCD5C2B28A807047000077
:107DD000001001401CB54FF44070FEF747FAA82090
:107DE000FFF79CFF4FF4E13000F072FEFEF7EAF976
:107DF000FAF7C2FB23480090234B244A0121244870
:107E0000FEF778FE23494FF478401024088022A022
:107E1000CDE900402346C82232211E20FEF780F91A
:107E200022A0CDE900401023C82246211E20FEF7E3
:107E300077F921A0CDE900401023C8225A211E2045
:107E4000FEF76EF920A0CDE900401023C8226E2174
:107E50001E20FEF765F91FA0CDE900401023C822BF
:107E600082211E20FEF75CF920490120CDE90001A6
:107E7000020200231EA1214801F08CFE01F07EFACF
:107E800000201CBD20010020EC010020EC0000209F
:107E900018020020300000204578706C6F72657207
:107EA0002053544D333246340000000049494320EA
:107EB000544553540000000041544F4D40414C493B
:107EC000454E54454B000000323031342F352F36AB
:107ED000000000004B4559313A5772697465202003
:107EE0004B4559303A5265616400000000000020A3
:107EF00073746172745F7461736B0000BD880008F5
:107F00002DE9F041184E0F460446F5683068001D13
:107F100000F04AFF38B9306890F82C1001208840F2
:107F2000316981433161601C07D137B13168BDE8E7
:107F3000F0410E48091D00F06FBF30682C44AC4280
:107F40004460316805D2306CBDE8F041091D00F095
:107F50004BBFF06B091D00F047FFB06A844200D2AE
:107F6000B462BDE8F081000050000020F40B002056
:107F70002DE9F041054600F05BFF2D4EB068401C36
:107F8000B06030682B4F10B1706930B32BE03560B2
:107F9000B068012827D1002404EB840007EB80009F
:107FA00000F014FF641C202CF6D3234800F00EFFD1
:107FB0002148143000F00AFF1F48283000F006FF67
:107FC0001D483C3000F002FF1B48503000F0FEFE20
:107FD0001948F0631430306405E03068E96AC06A1B
:107FE000884200D83560706A0121401C7062A86424
:107FF000E86A326981401143316100EB800007EB90
:108000008000291D00F008FF00F04EFF7069002875
:108010000CD03068E96AC06A884207D207494FF03D
:1080200080500860BFF34F8FBFF36F8FBDE8F081C2
:108030005000002024090020A40B002004ED00E0E3
:1080400010B500F0F5FE0E4C2068A0B90D4800F008
:10805000BDFE0C48143000F0B9FE0A48E060143050
:10806000206100221021052001F0CAFA206010B121
:1080700005A100F0EFFFBDE8104000F015BF0000C3
:1080800094000020080C0020546D72510000000084
:1080900070B5124E124D1CE001F0BCF9306820B1F1
:1080A000002401F08BFFA4B901E00124F9E700F0FE
:1080B000BFFEF068C468201D00F076FEA868401E70
:1080C000A8606868401E686000F0EEFE204600F080
:1080D00052F868680028DFD170BD0000E00B002076
:1080E0005000002030B4026C0B46002A0BD0C1684F
:1080F0001144C1604468A14201D30168C16030BC31
:108100001846F8F736BB30BC70472DE9F041856B57
:10811000174604460026026C82B1C7B1E068F8F742
:1081200028FBE168206C091AE1602268914202D2C2
:108130006168081AE060022F16D017E02068A8B91D
:10814000606801F095FE0646002060600EE0A068C1
:10815000F8F70FFB216CA0680844A06061688842B2
:1081600004D32068A06001E005B16D1E6D1CA563FD
:108170003046BDE8F08110B50446006B00F0C6FE45
:108180002046BDE8104000F0C1BE000010484FF48A
:10819000A041420706D0C01D0D4920F00700411A3A
:1081A000C1F5A0410B4A00230144C2E9000308398C
:1081B000103A21F0070111604B600B600B1AC0E907
:1081C000001393604FF000405360D0607047000090
:1081D000300C0020C4000020074E4FF08054074DA3
:1081E000FFF756FF30680128FAD92C60BFF34F8F94
:1081F000BFF36F8FF4E700002409002004ED00E0D6
:108200002DE9F047DDE909840E46174682469100C4
:108210009946089DA522206BF8F7F0FA6FF003014C
:10822000206B01EB8701084420F00707780705D091
:1082300040F22B3219A11EA0F8F7FCF800202218FA
:10824000315C82F83410315C11B1401C1428F6D333
:10825000002684F84760202D00D31F25E562C4E97D
:108260001456201D00F0BDFD04F1180000F0B9FD0A
:108270002461C5F120006462A061A665E66584F80A
:1082800060604A465146384600F002FB2060B8F173
:10829000000F01D0C8F80040BDE8F0872E2E5C46E4
:1082A00072656552544F535C7461736B732E630037
:1082B0004572726F723A25732C25640D0A00000016
:1082C00030B5114900E011460A688242FBD34B6881
:1082D0005C18844203D140681844486008464368EB
:1082E0001C18944209D1084C103C2468A24209D0C1
:1082F00052681A4442600A6812680260814200D0E3
:10830000086030BD0460F9E7C400002070B50024A7
:1083100041600B4D0061914206D8D11A82699142A9
:1083200006D2011D286907E09A4203D2994201D37F
:10833000012403E0011DE86800F056FD204670BDF1
:108340009400002010B5044600F072FDA06B20B12F
:10835000002400F0A9FD204610BD0124F9E700002B
:108360002DE9F34100980F460026846C2CB940F6A5
:10837000CE1216A11AA0F8F75DF8A06BE16B884247
:1083800005D340F6CF1211A115A0F8F753F8A06B52
:10839000E16B88420CD294F945503A466946204632
:1083A000FFF7B3FE0646681C05D06D1C84F84550E7
:1083B0003046BDE8FC81606A0028F9D004F1240051
:1083C00001F0B0FD0028F3D00126F1E72E2E5C4627
:1083D00072656552544F535C71756575652E630007
:1083E0004572726F723A25732C25640D0A000000E5
:1083F000F8B5054614480E46C068C068C468201D1C
:1084000000F0D2FCE069012817D1A0692B46411980
:1084100032462046FFF77AFF78B100200346014636
:1084200000902A46204601F0AFFE30B907494FF4CC
:10843000027201F11800F7F7FDFF616A01B02046F2
:10844000BDE8F0400847000094000020ECA00008C0
:1084500070B586B02F4E53E00198002806DADDE9AA
:108460000301029A90470198002849DB039C606948
:1084700010B1201D00F098FC05A800F0A7F80546F3
:1084800001980A283CD2DFE800F00505053B2738B3
:1084900005053B270298A169034601442A46204668
:1084A000FFF734FF00282BD0616A20468847E06937
:1084B000012825D1002000900298A16900234218CC
:1084C0001946204601F060FED0B940F2213212A1D7
:1084D00017A0F7F7AFFF13E00298A06128B94FF497
:1084E0004E720DA112A0F7F7A5FFA0692B46411906
:1084F0001A462046FFF70AFF02E0204600F006FD7C
:1085000000231A4601A9306801F0B6F80028A3D16B
:1085100006B070BD940000202E2E5C467265655238
:10852000544F535C74696D6572732E6300000000D4
:108530004572726F723A25732C25640D0A00000093
:10854000F8B50D46064600F065FF684600F03EF8B7
:108550000446009810B101F031FDF8BD1148ADB1ED
:1085600001690968D9B10025311B2A46006800F06D
:1085700083FD01F023FD0028EFD10B494FF080501F
:108580000860BFF34F8FBFF36F8FF8BDA642EBD8E3
:1085900001F014FD21463046FFF72AFFF8BD012502
:1085A000E2E700009400002004ED00E00648C16B03
:1085B000096829B1C16BC968C96849688162704797
:1085C0004FF0FF31FAE700005000002070B505467B
:1085D00001F08EFB064E0446B068844203D200F0E0
:1085E00009F8012000E0002028602046B46070BD3A
:1085F00094000020F8B5184E26E0C068C4680568ED
:10860000201D00F0D1FB616A20468847E0690128FF
:108610001AD1A0692844A84206D924616060211DAE
:10862000F06800F0E1FB0FE00020034601460090F7
:108630002A46204601F0A8FD30B9084940F292329E
:1086400001F11800F7F7F6FEF06801680029D4D1AF
:108650003169C6E90310F8BD94000020ECA00008C1
:1086600008484068401C05D040F20F1206A111A036
:10867000F7F7E0FE502080F31188BFF34F8FBFF370
:108680006F8FFEE7A80000202E2E5C4672656552B3
:10869000544F535C706F727461626C655C525644E7
:1086A000535C41524D5F434D34465C706F72742E83
:1086B000630000004572726F723A25732C25640DB9
:1086C0000A000000084CE068016839B1002139B1A6
:1086D0000020FFF735FFFFF7BBFEF4E70121F6E7C7
:1086E000C0680068F5E70000940000202DE9F04123
:1086F000044600F09DFB94F9455004F1240610E077
:10870000A06C20B100212046FFF72AFE04E0606A39
:1087100048B1304601F006FC08B100F06BFD6D1E5B
:108720006DB2002DECDC4FF0FF3684F8456000F0B0
:10873000BBFB00F07DFB94F9445004F1100709E005
:10874000206948B1384601F0EDFB08B100F052FD58
:108750006D1E6DB2002DF3DC84F84460BDE8F0417D
:1087600000F0A2BB2DE9F0410546002600F052FEC4
:10877000324F386808B9FFF709FDF86805424FD154
:10878000002D4DD0083568070BD005F00700C0F16B
:1087900008000544680704D0BF2229A132A0F7F7DA
:1087A00049FE002D3CD07868854239D823491031E4
:1087B0000846046801E0214604466068A84202D2E7
:1087C00020680028F7D13868B846844228D00E685F
:1087D0002068086060680836401B10280ED96719A9
:1087E000780704D0EC2216A11FA0F7F723FE6068DB
:1087F000401B786038466560FFF762FD6168D8F815
:1088000004004246401AC8F80400D8F808309842DC
:1088100000D29060D8F80C0001430020C4E90001A8
:1088200001F0CCFB700705D04FF4967204A10EA0A6
:10883000F7F700FE3046BDE8F0810000B4000020EC
:108840002E2E5C4672656552544F535C706F727485
:1088500061626C655C4D656D4D616E675C686561FC
:10886000705F342E630000004572726F723A257398
:108870002C25640D0A0000000449086818B1086836
:10888000426D521C4265086870470000500000208D
:1088900010B5031F4FF080741C601B1F21F00101F5
:1088A0001960191F044B0B6014390A60091F6FF01F
:1088B000020244380A6010BD618600081CB500F051
:1088C000B7FA02201B49C401CDE90001002322466A
:1088D00019A11C4801F05EF916490320091DCDE9D4
:1088E00000010023224618A11A4801F053F911494A
:1088F00004200831CDE900010023224616A11948C1
:1089000001F048F90B4905200C31CDE900010023A5
:10891000224615A1174801F03DF9064C241F206896
:1089200000F002FC206800F0FFFBBDE81C4000F0F6
:10893000BBBA0000040000207461736B315F746186
:10894000736B0000798900087461736B325F746126
:10895000736B0000E98900087461736B335F7461A5
:10896000736B0000398A00087461736B345F746143
:10897000736B0000858A0008DFF85C80174C184E86
:10898000184D30274FF000092888012806D1D8F863
:10899000A402414650B10020C1F8A4022078322838
:1089A00006D0332809D034280CD012E00120F3E798
:1089B000002303220221B06808E0002303221146AD
:1089C000F06803E0002303220421306901F00EF96E
:1089D0002770A5F80090D7E700804242F85C00209D
:1089E00000000020CC00002008B50B4D4FF0FF34F4
:1089F0004FF47A76214623466A46002001F0F2F9C8
:108A00002878322804D10098C1B204A000F0B6F84A
:108A1000304600F053FBEDE7F85C0020C8CECEF105
:108A200032CAD5B5C4B4AEBFDAD0C5CFA2CEAA3A49
:108A300025642020200A000008B50A4C4FF0FF35BD
:108A400029462B466A46002001F0CCF920783328CD
:108A500004D10098C1B204A000F090F8642000F0A6
:108A60002DFBEDE7F85C0020C8CECEF133CAD5B5BA
:108A7000C4B4AEBFDAD0C5CFA2CEAA3A25642020B6
:108A8000200A000008B50A4C4FF0FF3529462B4656
:108A90006A46002001F0A6F92078342804D1009815
:108AA000C1B204A000F06AF8642000F007FBEDE713
:108AB000F85C0020C8CECEF134CAD5B5C4B4AEBF80
:108AC000DAD0C5CFA2CEAA3A25642020200A000021
:108AD000F0B50746012187B00846FDF7EDFB0121FF
:108AE0001020FDF719FC234E072209213046F9F723
:108AF000A5FB07220A213046F9F7A0FB4FF4C0601E
:108B0000049002208DF814008DF8150000248DF8D3
:108B1000164001258DF8175004A93046F9F752FB8D
:108B2000ADF808400C20144EADF80440ADF80A0032
:108B30000097ADF80640ADF80C4069463046FDF7A9
:108B4000F9FD01213046FDF7B3FD012240F2255128
:108B50003046FDF7D6FD25208DF8180007208DF84A
:108B600019008DF81A408DF81B5006A8FDF74CFB34
:108B700007B0F0BD00000240001001400FB40B48E8
:108B800070B505AA0499F7F743FC0848F7F7D2FD3A
:108B900085B20024054E04E0305DFFF789F8641CBF
:108BA000A4B2AC42F8D370BC5DF814FB305C00207A
:108BB00070B50F4D2978012918D12A69002652B1C4
:108BC0002946402AC9688CB207D940234031403A2F
:108BD000C5E9031205E02E7008E01144C5E903164B
:108BE00093B204490A198121F9F760F8002070BD99
:108BF00080010020FF5E002010B5044601EB8100DB
:108C000004EBC000B0F88C0381B206480269064844
:108C100090474023044A01212046F9F701F800203B
:108C200010BD0000D8000020BF5E002010B5044633
:108C30008121F8F7A5FF01212046F8F7A1FF822145
:108C40002046F8F79DFF024840688047002010BD8D
:108C5000D800002010B5074C6069FF2807D00649EE
:108C6000A2698B6804F120019847FF206061002011
:108C700010BD000080010020D800002010B504467F
:108C8000022340228121F8F7ADFF02234022012177
:108C90002046F8F7A7FF0323082282212046F8F791
:108CA000A1FF0849022008710020487106480168A8
:108CB00088474023054A01212046F8F7B1FF0020EC
:108CC00010BD00000C010020D8000020BF5E002075
:108CD000064A10B5D169491CD161062903D100218A
:108CE000D161F9F7BDFA002010BD0000800100201D
:108CF00070B50C4605462A4809783A2211F06003FF
:108D0000A0F1310622D0202B05D021462846FDF7C0
:108D100084FD022070BD2348E28883688AB108067A
:108D2000607806D51E49113998471D49E2881139E6
:108D300020E0C6E905021A4928461139FDF77BFDF6
:108D400028E0002260781146984723E061780629E0
:108D500004D00A2912D00B291CD113E061882123E9
:108D6000B3EB112F05D10E48E28809303A2A00D919
:108D70003A2201462846FDF77FFD0BE00849012213
:108D80002D39F7E7608810F0FF0F05D021462846FF
:108D9000FDF743FD002070BDC0B27060FAE700002F
:108DA000B1010020D8000020D0E9013201699A60A9
:108DB000D0E901235A604A68824201D182684A6040
:108DC000002202610868401E0860704700F1080137
:108DD0004FF0FF32C0E90112C16001610021016062
:108DE000704700210161704730B50C68621C02D0E9
:108DF00000F1080202E0026904E01A4653681D68A7
:108E0000A542FAD953684B6099608A605160086145
:108E10000168491C016030BD42684A6093688B60FC
:108E200093685960916008610168491C016070474E
:108E3000502080F31188BFF34F8FBFF36F8F094924
:108E40004868401C486001280AD10748006810F0B3
:108E5000FF0F05D040F2B91204A10FA0F7F7EABA4C
:108E600070470000A800002004ED00E02E2E5C46B4
:108E700072656552544F535C706F727461626C65B9
:108E80005C525644535C41524D5F434D34465C70D6
:108E90006F72742E630000004572726F723A257310
:108EA0002C25640D0A00000010B5084C606828B934
:108EB0004FF4E07206A111A0F7F7BCFA6068401EFB
:108EC000606001D180F3118810BD0000A80000206F
:108ED0002E2E5C4672656552544F535C706F7274EF
:108EE00061626C655C525644535C41524D5F434D28
:108EF00034465C706F72742E630000004572726FAE
:108F0000723A25732C25640D0A00000070B5002804
:108F10002AD0164DA0F108046068E968084205D11E
:108F20004FF4A07212A11CA0F7F784FA206828B1B0
:108F300040F241120EA118A0F7F77CFA6068E968C8
:108F4000084211D02268002A0ED18843606000F0E8
:108F500061FA60686968084468602046FFF7B0F904
:108F6000BDE8704001F02AB870BD0000B4000020D8
:108F70002E2E5C4672656552544F535C706F72744E
:108F800061626C655C4D656D4D616E675C686561C5
:108F9000705F342E630000004572726F723A257361
:108FA0002C25640D0A00000006484FF47A71006811
:108FB000B0FBF1F14FF0E020491E41610721016152
:108FC000704700001400002010B5F7F7FBF9104CB3
:108FD00010280CD300F1E02090F8F00321788842AB
:108FE00005D24FF440720BA115A0F7F723FA1848E9
:108FF0000068A16800F4E060884207D9BDE810402D
:109000004FF4447203A10EA0F7F714BA10BD00008C
:10901000A80000202E2E5C4672656552544F535CAA
:10902000706F727461626C655C525644535C41525D
:109030004D5F434D34465C706F72742E63000000C8
:109040004572726F723A25732C25640D0A00000078
:109050000CED00E010B5074B002253F832401CB174
:10906000521C082AF9D310BD43F8321003EBC20199
:10907000486010BDE408002070B515460E46044651
:10908000FFF7D6FE94F944100020491C01D184F862
:10909000440094F94510491C01D184F84500FFF7BC
:1090A00003FFA06B28B92A46314604F1240000F0E2
:1090B000D1F82046BDE87040FFF718BB10B504009A
:1090C00012D00E49096B29B140F2CF420CA111A078
:1090D000F7F7B0F900F09EF900212046FEF710FFE7
:1090E00000F06CFF002807D10E494FF08050086057
:1090F000BFF34F8FBFF36F8F10BD000050000020F3
:109100002E2E5C4672656552544F535C7461736BCE
:10911000732E63004572726F723A25732C25640DAD
:109120000A00000004ED00E070B50446FFF780FE81
:10913000234D04B92C68201DFFF736FE58B9E06AAC
:10914000204A00EB800152F8211021B90121814011
:10915000286988432861A06A18B104F11800FFF754
:1091600023FE686A401C68622868844207D1211D7A
:109170001548FFF751FE6868401C686007E0A86862
:10918000401EA8602046FEF7F6FFFFF70FFAFFF734
:109190008BFE6869002812D0286884420FD1286BA2
:1091A00028B140F2654209A10DA0F7F743F9104933
:1091B0004FF080500860BFF34F8FBFF36F8F70BDCB
:1091C0005000002024090020E00B00202E2E5C46D9
:1091D00072656552544F535C7461736B732E6300F8
:1091E0004572726F723A25732C25640D0A000000D7
:1091F00004ED00E001490120C861704750000020E3
:1092000070B50D46040005D140F6063207A10CA04A
:10921000F7F710F90E48016820461831FFF7E4FD12
:109220002846BDE870400121FEF76ABE2E2E5C463E
:1092300072656552544F535C7461736B732E630097
:109240004572726F723A25732C25640D0A00000076
:109250005000002070B514460E46050005D140F6BA
:10926000313209A10DA0F7F7E5F81048016828464A
:109270001831FFF7D1FD0CB14FF0FF3621463046D3
:10928000BDE87040FEF73CBE2E2E5C46726565520E
:10929000544F535C7461736B732E63004572726F2D
:1092A000723A25732C25640D0A000000500000203E
:1092B00070B5040039D01D4DE06A2968C96A88423A
:1092C00033D2A069002804DB2868C06AC0F12000FE
:1092D000A061E06A164E00EB8000616906EB800039
:1092E00081421FD1201DFFF75FFD012150B9E06AC7
:1092F00000EB800256F8222022B92A6901FA00F018
:1093000082432A612868C06AE0622A698140114369
:10931000296100EB800006EB8000211DBDE8704054
:10932000FFF77ABD2868C06AE06270BD5000002077
:109330002409002010B5040005D140F6C13205A172
:1093400009A0F7F777F80C48016A2160C0686060EF
:1093500010BD00002E2E5C4672656552544F535C62
:109360007461736B732E63004572726F723A25736A
:109370002C25640D0A000000500000201CB5184880
:109380000024CDE900402346822216A1174800F0B0
:1093900001FC012803D100F0BDFE01280AD0401CC9
:1093A0001DD102B040F28472BDE8104010A115A09A
:1093B000F7F740B8502080F31188BFF34F8FBFF309
:1093C0006F8F07484FF0FF312C38816201214161D6
:1093D000C460F8F7CBFBBDE81C4000F071B81CBDC1
:1093E0007C00002049444C4500000000D981000861
:1093F0002E2E5C4672656552544F535C7461736BDC
:10940000732E63004572726F723A25732C25640DBA
:109410000A0000000248016B491C0163704700000C
:109420005000002070B51A4C206B10B10120E06193
:1094300070BD0020E061174908684968A063626B4D
:10944000904204D92168821A8B6D1A448A65606340
:109450002069114EB0FA80F0C0F11F0000EB8005CA
:1094600056F8250028B940F6F6220CA110A0F6F710
:10947000E1FF06EB850000F10802416849684160A0
:10948000914201D149684160C868206070BD000008
:109490005000002028000020240900202E2E5C46C9
:1094A00072656552544F535C7461736B732E630025
:1094B0004572726F723A25732C25640D0A00000004
:1094C0001CB5304C20683049884205D140F2591211
:1094D0002EA139A0F6F7AEFF20682B49491E88421D
:1094E00005D14FF4AD7229A133A0F6F7A3FF364C96
:1094F00020780190FF20207020788DF800009DF8E2
:1095000000009DF8001000F0F000884205D040F205
:1095100073121EA128A0F6F78DFF9DF800002B4ABC
:1095200000F0500010700720906007E09068401E27
:1095300090609DF8000040008DF800009DF800004C
:109540000006F3D4107A000200F4E0609060019805
:1095500020700C482030016841F4700101600168FE
:1095600041F070410160FFF71FFD00205060F6F7E9
:10957000F1FE1748016841F040410160F6F7DAFE5C
:1095800000201CBD00ED00E071C20F412E2E5C4694
:1095900072656552544F535C706F727461626C6592
:1095A0005C525644535C41524D5F434D34465C70AF
:1095B0006F72742E630000004572726F723A2573E9
:1095C0002C25640D0A00000000E400E0A800002043
:1095D00034EF00E010B5502080F31188BFF34F8FB7
:1095E000BFF36F8F00F08AFB18B104494FF0805031
:1095F0000860002080F3118810BD000004ED00E039
:109600002DE9F04117460E46050005D14FF4C4720E
:1096100010A115A0F6F70EFFBEB105FB06F0543001
:10962000FFF7A0F804000ED004F154007EB12060D2
:10963000C4E90F562046012100F0E0F884F850708C
:1096400000212046A164BDE8F0810020E7E7246006
:10965000EEE700002E2E5C4672656552544F535C57
:1096600071756575652E63004572726F723A257368
:109670002C25640D0A0000002DE9FF4F83B09B46A6
:109680008A4604004FF0000605D140F2DC4251A1A9
:1096900055A0F6F7CFFEBAF1000F07D1206C28B124
:1096A00040F2DD424BA150A0F6F7C4FE00F012FBE1
:1096B00038B9059828B14FF49C6246A14AA0F6F744
:1096C000B9FE4FF000094FF08057DFF82C81FFF70B
:1096D000AFFBA56B45B351462046E668FEF702FD99
:1096E000BBF1000F13D0E660606A50B104F12400B2
:1096F00000F018FC28B1C8F80070BFF34F8FBFF31B
:109700006F8FFFF7D1FB012007B0BDE8F08F6D1E12
:10971000A563206810B9FFF7AFF8606020690028E2
:10972000EFD004F11000E3E7059808B11EB106E0A0
:10973000FFF7BAFB27E06846FFF7FCFD0126FFF7BD
:10974000B3FBFFF767FEFFF773FB94F94400401C7F
:1097500001D184F8449094F94500401C01D184F86B
:109760004590FFF7A1FB05A9684600F0CFF9002856
:1097700020460AD0FEF7BAFF00F020FC2046FEF794
:10978000E1FD0028A3D00020BEE7FEF7DBFDD8B145
:10979000206830B9FFF74CFB6068FFF789FDFFF7E1
:1097A00083FB04F124000599FFF72AFD2046FEF70C
:1097B0009DFF00F003FC002889D1C8F80070BFF3BA
:1097C0004F8FBFF36F8F82E72046FEF78FFF00F0C9
:1097D000F5FB7CE72E2E5C4672656552544F535C58
:1097E00071756575652E63004572726F723A2573E7
:1097F0002C25640D0A00000004ED00E070B50D4654
:10980000040005D140F21B121CA121A0F6F712FEA4
:10981000FFF70EFBD4E90F20216802FB0011616005
:109820000021A1632168A1600A46D4E90F01401E0E
:1098300000FB0121E16021464FF0FF3001F8440FA9
:10984000487004F110004DB1FFF7C0FA04F1240094
:10985000FFF7BCFAFFF728FB012070BD2169002942
:10986000F8D000F05FFB0028F4D00D494FF0805095
:109870000860BFF34F8FBFF36F8FEBE72E2E5C4670
:1098800072656552544F535C71756575652E630042
:109890004572726F723A25732C25640D0A00000020
:1098A00004ED00E02DE9FF4F83B099468B4604009C
:1098B0004FF0000605D140F2D92252A156A0F6F78A
:1098C000B9FDBBF1000F07D1206C28B140F2DA22BC
:1098D0004CA151A0F6F7AEFDB9F1020F08D1E06B33
:1098E000012805D040F2DB2246A14BA0F6F7A2FDED
:1098F00000F0F0F938B9059828B140F2DE2241A114
:1099000045A0F6F797FD4FF0000A4FF08057DFF8BB
:109910001881FFF78DFAA06BE16B884206D3B9F18D
:10992000020F03D0059800B316B325E04A46594606
:109930002046FEF7EAFBA16C21B149462046FEF71E
:109940000FFD05E0616A19B104F1240000F0EAFAA4
:1099500028B1C8F80070BFF34F8FBFF36F8FFFF7C8
:10996000A3FA012007B0BDE8F08FFFF79DFA21E0D0
:109970006846FFF7DFFC0126FFF796FAFFF74AFD7E
:10998000FFF756FA94F94400401C01D184F844A032
:1099900094F94500401C01D184F845A0FFF784FAF2
:1099A00005A9684600F0B2F830B12046FEF79EFEE9
:1099B00000F004FB0020D5E7FFF73AFAA06BE16B5B
:1099C000884201D1012500E00025FFF76DFA95B12D
:1099D00004F110000599FFF713FC2046FEF786FE00
:1099E00000F0ECFA002894D1C8F80070BFF34F8F54
:1099F000BFF36F8F8DE72046FEF778FE00F0DEFAAA
:109A000087E700002E2E5C4672656552544F535C0A
:109A100071756575652E63004572726F723A2573B4
:109A20002C25640D0A00000004ED00E02DE9F0474C
:109A3000984615468946040005D140F29F322AA176
:109A40002EA0F6F7F7FCB9F1000F07D1206C28B172
:109A50004FF4687224A129A0F6F7ECFCB8F1020FCC
:109A600008D1E06B012805D040F2A1321EA123A04D
:109A7000F6F7E0FCFFF7A8FA5020EFF3118780F328
:109A80001188BFF34F8FBFF36F8FA06BE16B8842DC
:109A900007D3B8F1020F04D0002087F31188BDE886
:109AA000F08794F94560424649462046FEF72DFB73
:109AB000701C04D0761C84F845600120EDE7A06C92
:109AC000012620B141462046FEF74AFC06E0606AC6
:109AD0000028F2D004F1240000F024FA0028ECD091
:109AE000002DEAD02E60E8E72E2E5C4672656552A6
:109AF000544F535C71756575652E63004572726FC6
:109B0000723A25732C25640D0A00000070B50D46CD
:109B1000040005D140F6CB3214A119A0F6F78AFC57
:109B20002DB940F6CC3211A115A0F6F783FCFFF752
:109B30007FF9174AD06829684B1C0FD02368126A36
:109B4000934202D0626882420AD96268801A8842CF
:109B500006D2081A28602046FFF7ECFB002400E03C
:109B60000124FFF7A1F9204670BD00002E2E5C46AF
:109B700072656552544F535C7461736B732E63004E
:109B80004572726F723A25732C25640D0A0000002D
:109B9000500000202DE9FF5F8346DDE90E879946DE
:109BA00016468A469000FEF7DDFD05001AD06420B7
:109BB000FEF7D8FD040012D025630021CDE9024153
:109BC000CDE900874B46324651465846FEF718FB12
:109BD0002046FEF7CDF9012004B0BDE8F09F2846ED
:109BE000FFF794F94FF0FF30F6E700002DE9F04160
:109BF0001F4690460D4604004FF0010605D141F284
:109C0000FD0228A12CA0F6F715FCFFF711F90FB102
:109C1000E06D386094F86000022184F86010B8F1BB
:109C2000050F0ED2DFE808F00D03060C0A00E16D07
:109C3000294301E0E16D491CE16502E0022803D0FF
:109C4000E565012802D028E0002626E0201DFFF768
:109C5000ABF81D4DE06A01212A6981401143296159
:109C60001A4900EB800001EB8000211DFFF7D4F8BA
:109C7000A06A28B141F235120AA10FA0F6F7DAFB6B
:109C8000E06A2968C96A884207D911494FF08050B3
:109C90000860BFF34F8FBFF36F8FFFF705F93046B2
:109CA000BDE8F0812E2E5C4672656552544F535CC0
:109CB0007461736B732E63004572726F723A257311
:109CC0002C25640D0A00000050000020240900200B
:109CD00004ED00E00548416919B1006B18B100209E
:109CE000704701207047022070470000500000209C
:109CF0000148C06870470000500000202DE9F04185
:109D00002D4F0026386B40B1B869401CB861F86926
:109D100000B101263046BDE8F081FD686D1CFD6094
:109D200011D1F86B006828B140F6D91223A128A000
:109D3000F6F780FBF86B396CF9633864386A401CBD
:109D40003862FEF733FCB86ADFF89480854209D3A5
:109D5000F86B006880B1F86BC068C46860688542C1
:109D60000DD2B8623868C06A00EB800158F8210053
:109D70000128CCD90126CAE74FF0FF30F1E7201DBA
:109D8000FFF712F8A06A18B104F11800FFF70CF8F9
:109D9000E06A01213A6981401143396100EB800199
:109DA00008EB8100211DFFF737F8E06A3968C96ABE
:109DB0008842CDD30126CBE7500000202E2E5C46F2
:109DC00072656552544F535C7461736B732E6300FC
:109DD0004572726F723A25732C25640D0A000000DB
:109DE000240900202DE9F0411E4615468846074605
:109DF000FFF71EF81C4C206890F86000022814D071
:109E00002068C16DB943C1652168012081F86000F7
:109E10005EB101213046FEF773F814494FF08050CF
:109E20000860BFF34F8FBFF36F8FFFF73DF8FEF76A
:109E3000FFFF15B12068C06D2860206890F86000B1
:109E400001280ED02068C16D21EA0801C1650125F5
:109E50002168002081F86000FFF726F82846BDE859
:109E6000F0810025F4E700005000002004ED00E040
:109E700070B504004FF000063CD01F4D28688442A6
:109E800005D040F6C7621DA121A0F6F7D3FA606D98
:109E900028B940F6C96219A11DA0F6F7CBFA606D8A
:109EA000401E6065226DE16A914223D010BB201DE7
:109EB000FEF77AFF1A49012250B9E06A00EB8003ED
:109EC00051F8233023B92B6902FA00F083432B6148
:109ED000206DE062C0F12000A061E06A2B69824041
:109EE0001A432A6100EB800001EB8000211DFEF780
:109EF00093FF0126304670BD500000202E2E5C4698
:109F000072656552544F535C7461736B732E6300BA
:109F10004572726F723A25732C25640D0A00000099
:109F2000240900202DE9F041C068C4682CB940F62E
:109F3000613216A11AA0F6F77DFA04F1180007465F
:109F4000FEF732FF1A4D286B012660B139461948D9
:109F5000FEF762FFE06A2968C96A884213D90120C6
:109F6000EE61BDE8F081201DFEF71EFFE06A2A6960
:109F700006FA00F1114329610F4900EB800001EB63
:109F80008000211DE4E70020EBE700002E2E5C4658
:109F900072656552544F535C7461736B732E63002A
:109FA0004572726F723A25732C25640D0A00000009
:109FB00050000020CC0B0020240900202DE9F047A0
:109FC0002B4D00242746286B28B94FF4FD6229A1A8
:109FD0002DA0F6F72FFAFEF72BFF286B401E286303
:109FE000286BE8BBA8682C490126C8B3A1F52A79DB
:109FF0008846D8F80010E9B1D8F80C00C46804F11C
:10A000001800FEF7D1FE201DFEF7CEFEE06A2A6999
:10A0100006FA00F11143296100EB800109EB810090
:10A02000211DFEF7F9FEE06A2968C96A8842E0D37B
:10A03000EE61DEE70CB1FEF7B9FAAC693CB1FFF7AF
:10A040005DFE00B1EE61641EF9D10020A861E869EF
:10A0500030B11249012738070860BFF34F8F00E085
:10A0600001E0BFF36F8FFEF71FFF3846BDE8F087B2
:10A07000500000202E2E5C4672656552544F535C92
:10A080007461736B732E63004572726F723A25733D
:10A090002C25640D0A000000CC0B002004ED00E02C
:10A0A0002DE9F0470746994616460D462C20DDF867
:10A0B00020A0FEF757FB040014D0B8464F46D14607
:10A0C0002DB94FF4C67209A10EA0F6F7B3F9FDF74A
:10A0D000B7FF04F11801C4F8008081E8E002201DF8
:10A0E000FEF77FFE2046BDE8F08700002E2E5C467E
:10A0F00072656552544F535C74696D6572732E635B
:10A10000000000004572726F723A25732C25640DB1
:10A110000A0000001CB50024FDF792FF0C480068FF
:10A1200068B10B491F20091DCDE9000100234FF440
:10A13000827208A10948FFF72DFD040005D140F205
:10A14000331207A10CA0F6F775F920461CBD0000DC
:10A1500094000020546D722053766300C586000879
:10A160002E2E5C4672656552544F535C74696D6562
:10A1700072732E63000000004572726F723A25738D
:10A180002C25640D0A0000002DE9FF47DDF830A002
:10A19000994690460D4606004FF0000705D14FF452
:10A1A000D37212A117A0F6F745F91A4C206880B1B6
:10A1B000CDE900580296062D11DAFFF78BFD022833
:10A1C0004FF0000309D0002269462068FFF76AFBC0
:10A1D000074604B03846BDE8F0875246F4E700234E
:10A1E0004A466946FFF722FCF2E700002E2E5C4645
:10A1F00072656552544F535C74696D6572732E635A
:10A20000000000004572726F723A25732C25640DB0
:10A210000A0000009400002010B500290AD0087838
:10A22000002807D005487844F7F7A4F8002801D0A3
:10A23000002010BD0248784410BD00008A1B0000B9
:10A24000821B000010B500290AD00878002807D02A
:10A2500005487844F7F78EF8002801D0002010BD9B
:10A260000248784410BD00007A1B0000721B0000F9
:10A270004FEA1153A3F58063D3F11E03A8BFD3F1B6
:10A28000200C08DB4FF0004242EAC12252EA505251
:10A2900032FA03F0704709420BD4102BC4BF0020E0
:10A2A000704703F5787CBCF1FF3F05D04FF0FF30DD
:10A2B00070474FF00000704770B500F0C3F800BF62
:10A2C0004992248000207047F0E7B0FA80F310FA3A
:10A2D00003F10AD0C3F11D0303F580634FEA415037
:10A2E0004FEA035202EBD12170474FF00000704754
:10A2F000DFF848C170B51CEA111E1EBF1CEA131519
:10A300009EEA0C0F95EA0C0F00F06F8081EA0304BF
:10A3100023EA4C134EEAD47E21EA4C1141F4801119
:10A3200043F48013AE44A1FB024CA0FB0365AEF1E5
:10A330007F7E361955EB0C05A1FB034C4CF1000355
:10A34000A0FB021C16EB0C06654153F10003094209
:10A3500018BF46F0010613F4007F0BD14FEA03311A
:10A360004FEA0530340341EA155140EA16506FF0C8
:10A3700003020AE04FEAC3214FEAC520F40241EA92
:10A38000555140EA56506FF0020202EB2E4201EBAB
:10A39000025585EACE710AD05FEA440C18BF24F05A
:10A3A000004450F1000041F1000120EAD47040F275
:10A3B000FE7C624500D270BDA84214BF4FF08044BD
:10A3C0004FF04044002E08BF0024BEF1806FA8BFAC
:10A3D000A1F1C041BDE8704080F282804FF00000E2
:10A3E00001F1C04101F0004170479EEA0C0F0CEAF8
:10A3F000131518BF95EA0C0F06D04FF0000081EA44
:10A40000030E0EF0004170BD00F01CF88900013E03
:10A4100000F007B800F009B84FEA430C5FEA5C5C53
:10A4200008D081EA030100F05BB84FEA410C5FEA13
:10A430005C5CF6D14FF00000014970470000FF0757
:10A440000000F87F0EF1020E2EF0030E5EF8046B92
:10A45000364205D4012A43EB030515F5001F12D837
:10A46000012841EB010C1CF5001F0CD80ED14FEA5E
:10A47000D17C15F5001F0CEB4C0C0CF1020C08BF45
:10A480004CEBD37C04E04FF0080C01E04FEAD37CA6
:10A490000CEB4C0526FA05F606F00706B6F1040C9F
:10A4A00006D20EEB860CBDE870404CF0010C604704
:10A4B000DFE80CF0090B02024FF000414FF0000002
:10A4C000A1F5002170BD19461046012851EB010489
:10A4D00018BFD4F5001484BF002001F0004170BD06
:10A4E0000808A0F500114FEA310170474FF04070A5
:10A4F000E1EE100A7047F6F7BDBC00000000000056
:10A50000000000000000000000003F4000000000CC
:10A510000000000030004000300040000000090052
:10A520000BC03D000BC03D00090018C024407FE077
:10A53000224031800000180024C01B000D803240F2
:10A54000018003801C4027401C8007400040100011
:10A55000600000000000000000000000000000009B
:10A560001F80204040200000402020401F8000002D
:10A570000000090006001F8006000900000004001A
:10A5800004003F8004000400000000100060000090
:10A5900000000000000004000400040004000400A7
:10A5A000000000000040000000000000000000204B
:10A5B00001C006003800400000001F8020402040FD
:10A5C00020401F800000000010403FC000400000FD
:10A5D000000018C021402240244018400000108094
:10A5E0002040244024401B80000002000D00110088
:10A5F0003FC0014000003C80244024402440238090
:10A6000000001F80244024403440038000003000BC
:10A61000200027C03800200000001B802440244078
:10A6200024401B8000001C0022C0224022401F80CA
:10A6300000000000000008400000000000000000D2
:10A6400000000460000000000000000004000A0098
:10A65000110020804040090009000900090009009C
:10A66000000000004040208011000A000400180093
:10A67000200023402400180000001F8020402740B5
:10A6800029401F400000004007C039000F0001C0F2
:10A69000004020403FC0244024401B8000001F8019
:10A6A0002040204020403080000020403FC020401B
:10A6B00020401F80000020403FC024402E4030C07A
:10A6C000000020403FC024402E00300000000F005A
:10A6D0001080204022403380020020403FC0040010
:10A6E00004003FC02040204020403FC02040204088
:10A6F00000000060202020203FC0200020002040DB
:10A700003FC024400B0030C0204020403FC02040CC
:10A710000040004000C03FC03C0003C03C003FC0C0
:10A72000000020403FC00C4023003FC020001F809D
:10A730002040204020401F80000020403FC0244097
:10A740002400180000001F802140214020E01FA0AD
:10A75000000020403FC02440260019C0004018C01F
:10A7600024402440224031800000300020403FC07F
:10A7700020403000000020003F80004000403F802B
:10A78000200020003E0001C00700380020003800F3
:10A7900007C03C0007C038000000204039C0060058
:10A7A00039C0204000002000384007C03840200059
:10A7B0000000304021C02640384020C0000000008A
:10A7C00000007FE0402040200000000070000C00EE
:10A7D0000380004000000000402040207FE0000097
:10A7E00000000000200040002000000000000010D9
:10A7F00000100010001000100010000000004000C9
:10A80000000000000000000002800540054003C079
:10A81000004020003FC004400440038000000000CE
:10A820000380044004400640000000000380044010
:10A8300024403FC000400000038005400540034025
:10A840000000000004401FC02440244020000000FD
:10A8500002E0055005500650042020403FC004404F
:10A86000040003C000400000044027C00040000076
:10A87000000000100010041027E00000000020403D
:10A880003FC00140070004C00440204020403FC0BA
:10A8900000400040000007C0040007C0040003C0DF
:10A8A0000000044007C00440040003C00040000052
:10A8B00003800440044003800000041007F00450AB
:10A8C000044003800000000003800440045007F0AF
:10A8D0000010044007C00240040004000000000013
:10A8E00006400540054004C00000000004001F8031
:10A8F000044000400000040007800040044007C0FE
:10A9000000400400070004C00180060004000600A7
:10A9100001C0070001C006000000044006C001009D
:10A9200006C0044000000410071004E00180060087
:10A9300004000000044005C0064004400000000080
:10A94000000004007BE04020000000000000000048
:10A95000FFF000000000000040207BE00400000049
:10A960000000400080004000200020004000000067
:10A9700000000000000000000000000000000000D7
:10A98000000000001FCC000C0000000000000000D0
:10A990000800300060000800300060000000022065
:10A9A00003FC1E20022003FC1E20022000000000E9
:10A9B0000E1811043FFF10840C78000000000F00F7
:10A9C00010840F3800C007781884007800000078E1
:10A9D0000F8410C411240E9800E4008400080800BD
:10A9E000680070000000000000000000000000008F
:10A9F0000000000007E018182004400200000000DA
:10AA000040022004181807E0000000000000024087
:10AA1000024001800FF001800240024000000080EF
:10AA2000008000800FF8008000800080000000019E
:10AA3000000D000E000000000000000000000000FB
:10AA40000080008000800080008000800080000086
:10AA5000000C000C000000000000000000000000DE
:10AA600000060018006001800600180020000000A9
:10AA700007F0080810041004080807F000000000A0
:10AA8000080408041FFC000400040000000000008B
:10AA90000E0C10141024104411840E0C0000000041
:10AAA0000C1810041104110412880C70000000002E
:10AAB00000E00320042408241FFC00240000000000
:10AAC0001F981084110411041088107000000000F9
:10AAD00007F00888110411041888007000000000B5
:10AAE0001C00100010FC13001C00100000000000EF
:10AAF0000E3811441084108411440E3800000000F8
:10AB00000700088C10441044088807F0000000007B
:10AB100000000000030C030C000000000000000017
:10AB2000000000010106000000000000000000001D
:10AB300000800140022004100808100400000220D8
:10AB40000220022002200220022002200000000039
:10AB500010040808041002200140008000000000DA
:10AB60000E001200100C106C10800F00000003E0AB
:10AB70000C1813E4142417C4082807D0000000049C
:10AB8000003C03C41C40074000E4001C0004100407
:10AB90001FFC1104110411040E880070000003E072
:10ABA0000C1810041004100410081C1000001004ED
:10ABB0001FFC100410041004080807F00000100423
:10ABC0001FFC1104110417C410040818000010041D
:10ABD0001FFC1104110017C010000800000003E062
:10ABE0000C181004100410441C78004000001004DD
:10ABF0001FFC10840080008010841FFC10040000E3
:10AC0000100410041FFC10041004000000000003D6
:10AC10000001100110011FFE1000100000001004C0
:10AC20001FFC110403801464181C1004000010049D
:10AC30001FFC1004000400040004000C00001004B9
:10AC40001FFC1F0000FC1F001FFC1004000010046C
:10AC50001FFC0C04030000E010181FFC100007F09C
:10AC60000808100410041004080807F0000010047D
:10AC70001FFC10841080108010800F00000007F06F
:10AC8000081810241024101C080A07F200001004F1
:10AC90001FFC1104110011C011300E0C0004000043
:10ACA0000E1C11041084108410441C38000018007D
:10ACB000100010041FFC1004100018000000100009
:10ACC0001FF810040004000410041FF81000100006
:10ACD0001E0011E0001C007013801C0010001FC03B
:10ACE000103C00E01F0000E0103C1FC000001004FA
:10ACF000180C163401C001C01634180C10041000D2
:10AD00001C00130400FC13041C00100000000804C5
:10AD1000101C1064108413041C04101800000000A0
:10AD2000000000007FFE40024002400200000000E0
:10AD300030000C0003800060001C000300000000D5
:10AD40004002400240027FFE0000000000000000C0
:10AD500000002000400040004000200000000001F2
:10AD600000010001000100010001000100010000DC
:10AD70004000400020000000000000000000000033
:10AD80000098012401440144014400FC0004100027
:10AD90001FFC00880104010400880070000000000E
:10ADA0000070008801040104010400880000000014
:10ADB000007000880104010411081FFC0004000059
:10ADC00000F8014401440144014400C800000000AF
:10ADD000010401040FFC110411041100180000000B
:10ADE00000D601290129012901C90106000010042A
:10ADF0001FFC008401000100010400FC00040000AD
:10AE00000104190419FC0004000400000000000003
:10AE1000000300010101190119FE000000001004E7
:10AE20001FFC0024004001B4010C010400000000DC
:10AE3000100410041FFC00040004000000000104C2
:10AE400001FC0104010001FC0104010000FC0104FB
:10AE500001FC008401000100010400FC000400006A
:10AE600000F8010401040104010400F800000101DC
:10AE700001FF00850104010400880070000000004B
:10AE80000070008801040104010501FF00010104B4
:10AE9000010401FC008401040100018000000000A5
:10AEA00000CC0124012401240124019800000000A9
:10AEB0000100010007F80104010400000000010086
:10AEC00001F8000400040004010801FC0004010072
:10AED00001800170000C001001600180010001F090
:10AEE000010C003001C00030010C01F00100000035
:10AEF0000104018C00740170018C01040000010147
:10AF000001810171000E0018016001800100000044
:10AF10000184010C013401440184010C0000000093
:10AF200000000000000001003EFC40024002000062
:10AF3000000000000000FFFF000000000000000013
:10AF4000400240023EFC0100000000000000000042
:10AF500060008000800040004000200020000000D1
:10AF600000000000000000000000000000000000E1
:10AF700000000000000000000000000000000000D1
:10AF800000000000000000000000000000000000C1
:10AF9000000F80380FFE380F8038000000000000DE
:10AFA000000000000000000000000000010000069A
:10AFB00000000C00003800003100000600000C000A
:10AFC0000038000030000000000000000000618038
:10AFD0000067F807F98000618000618000618000EF
:10AFE00061800067F807F9800061800000000000C0
:10AFF0000000000001C0E003E0F00630080418087B
:10B000001FFFFE040E080787F00381E00000000028
:10B01000000001F000060C00040408060C7001F9A1
:10B02000C0000E00003BE000EC18070808040C18F4
:10B030000003E00000000001E00007F003F818043E
:10B040001C0804170807E1D003C0E00023B0003C4F
:10B0500008002008000010000000000000010000AF
:10B060003100003200001C00000000000000000061
:10B0700000000000000000000000000000000000D0
:10B0800000000000000000000000000000007F0041
:10B0900001FFC00780F00C0018100004200002001F
:10B0A00000000000002000021000040C00180780BF
:10B0B000F001FFC0007F0000000000000000000061
:10B0C00000000000000000000000420000660000D8
:10B0D0006600003C0000180003FFC0001800003CA0
:10B0E000000066000066000042000000000008004A
:10B0F00000080000080000080000080001FFC00070
:10B100000800000800000800000800000800000017
:10B110000000000100003100003200001C000000AF
:10B12000000000000000000000000000000000001F
:10B1300000000000000008000008000008000008EF
:10B1400000000800000800000800000800000800D7
:10B1500000080000000000000000000000003800AF
:10B16000003800003800000000000000000000006F
:10B1700000000000000000000000000000000006C9
:10B1800000001C000070000180000E00003800006C
:10B19000C0000700001C000030000000000000009C
:10B1A00000007F8001FFE0038070060018040008A3
:10B1B00004000806001803807001FFE0007F800093
:10B1C000000000000000000001000801000801006C
:10B1D0000803FFF807FFF800000800000800000857
:10B1E00000000000000000000001C03802C0580448
:10B1F0000098040118040218040418061C1803F827
:10B200001801E0F800000000000000000001C0E0AC
:10B2100003C0F0040008040808040808061808031E
:10B22000F41801E7F00001E0000000000000000059
:10B2300000000300000D0000110000610000810803
:10B2400003010807FFF80FFFF800010800010800DC
:10B2500000000000000000E007FCD006080806100F
:10B2600008061008061008061838060FF00607C072
:10B27000000000000000000000003F8001FFE0032C
:10B280008430020818041008041008041008071875
:10B2900010030FF00007C0000000000000000000D5
:10B2A00003C0000700000600000600F80607F806C5
:10B2B000180006E000070000060000000000000083
:10B2C0000001E1E003F7F006341004180804180840
:10B2D000040C08040C0806161803F3F001C1E00082
:10B2E000000000000000F80003FC300306380402F0
:10B2F000080402080402080404100308F001FFC057
:10B30000007F0000000000000000000000000000BE
:10B310000000000000007038007038007038000035
:10B32000000000000000000000000000000000001D
:10B3300000000000000000000000301A00301C0077
:10B3400000000000000000000000000000000000FD
:10B35000000000000008000014000022000041006E
:10B360000080800100400200200400100800080056
:10B370000000000000002100002100002100002149
:10B380000000210000210000210000210000210018
:10B390000021000000000000000000000800080478
:10B3A00000100200200100400080800041000022C7
:10B3B0000000140000080000000000000003C000AE
:10B3C00004C000040000080038080F3808083808D6
:10B3D00010000C300007E00003C000000000000077
:10B3E00000003F8000FFE0038070020F10067088AD
:10B3F00004C088048308047F8802C09003012000F1
:10B40000FE400000080000180001F8003E0801C2DC
:10B410000007020007E20000FE00001FC80001F85C
:10B4200000003800000804000807FFF807FFF804D0
:10B43000080804080804080804080806180803F4A3
:10B440001801E7F00001E0000000000000003F806C
:10B4500001FFE003807002001804000804000804E3
:10B4600000080400100600200780C000000004004F
:10B470000807FFF807FFF8040008040008040008A4
:10B4800004001802001003807001FFE0007F8000BC
:10B49000000004000807FFF807FFF8040808040884
:10B4A00008040808040808043E08040008060018F8
:10B4B00001006000000004000807FFF807FFF8041F
:10B4C0000808040800040800040800043E00060000
:10B4D00000060000018000000000000000003F8026
:10B4E00001FFE0038070060018040008040208044D
:10B4F00002080203F00783F00002000002000400CB
:10B500000807FFF807FFF804080800080000080013
:10B5100000080000080004080807FFF807FFF80407
:10B5200000080000000000000400080400080400F7
:10B530000807FFF807FFF8040008040008040008E3
:10B5400000000000000000000000000600000700EE
:10B55000000104000104000104000307FFFE07FFCF
:10B56000FC04000004000004000004000807FFF8C9
:10B5700007FFF8040C08001800003E0004C780050F
:10B5800003C80600F804003804001800000804008E
:10B590000807FFF807FFF80400080000080000088B
:10B5A000000008000008000008000018000060000B
:10B5B000000004000807FFF807800807FC00007F70
:10B5C000C00003F80007C000780007800807FFF8F4
:10B5D00007FFF804000804000807FFF80700080345
:10B5E000C00000E000003800001E0000070000015D
:10B5F000C00400F007FFF8040000000000007F8096
:10B6000001FFE0038070060018040008040008062B
:10B61000001803003001FFE0007F800000000400FC
:10B620000807FFF807FFF8040408040400040400F6
:10B63000040400040400060C0003F80001F00000FC
:10B640000000000000007F8001FFE0038070060022
:10B65000880400880400C806003C03003E01FFE6A1
:10B66000007F8400000004000807FFF807FFF804CB
:10B670000808040800040C00040F00040BC00610A6
:10B68000F003F03801E00800000800000001E0F8D5
:10B6900003F030063010041808041808040C0804DD
:10B6A0000C080206180207F00781E0000000018084
:10B6B0000006000004000004000004000807FFF872
:10B6C00007FFF80400080400000400000600000161
:10B6D000800004000007FFE007FFF00400180000EE
:10B6E000080000080000080000080000080400101E
:10B6F00007FFE004000004000006000007E0000768
:10B70000FE00041FE00001F80000380001E0043EE4
:10B710000007C00006000004000004000007E0006D
:10B7200007FFC0041FF80007C007F80007FF8004E8
:10B730003FF80007C004F800070000040000000004
:10B740000004000806001807C07805F1C8003E0094
:10B75000001F800463E80780F80600180400080052
:10B76000000004000006000007800007E008047CD9
:10B7700008001FF80007F800180804E00807000098
:10B780000600000400000000000100080600380464
:10B7900000F80403E8040F08047C0805F00807C05B
:10B7A000080700180400600000000000000000000E
:10B7B0000000000000000000003FFFFE200002200B
:10B7C0000002200002200002200002000000000011
:10B7D0000000000008000007000000C00000380062
:10B7E0000006000001C000003000000E0000010053
:10B7F00000000000000000002000022000022000E5
:10B80000022000022000023FFFFE000000000000B6
:10B810000000000000000000000000000000000820
:10B820000000100000300000200000300000100078
:10B8300000080000000000000000000001000001FE
:10B8400000000100000100000100000100000100F3
:10B8500000010000010000010000010000010000E3
:10B860000000000000000020000020000010000088
:10B8700010000000000000000000000000000000B8
:10B8800000000000000000F00019F8001B18002262
:10B8900008002608002408002410003FF8001FF8C4
:10B8A00000000800001800000004000007FFF80F67
:10B8B000FFF00018180010080020080020080030D1
:10B8C00018001FF0000FC00000000000000007C0BB
:10B8D000001FF00018300020080020080020080099
:10B8E0003C08001C10000060000000000000000088
:10B8F000000007C0001FF0003818002008002008D2
:10B9000000200804101007FFF80FFFF000001000DF
:10B9100000000000000000000007C0001FF000123F
:10B9200030002218002208002208003208001E10F1
:10B93000000E200000000000000020000020080091
:10B94000200801FFF803FFF806200804200804205F
:10B950000807200003000000000000000000000EA7
:10B96000000E6E001FF30031B10020B10020B100C5
:10B970003191001F13002E1E00200E003000000029
:10B980000004000807FFF80FFFF80010080020006F
:10B99000002000002008003FF8001FF80000080009
:10B9A0000000000000000000002008002008002027
:10B9B00008063FF8063FF8000008000008000008ED
:10B9C0000000000000000000000000000000030074
:10B9D0000003002001002001002003063FFE063F77
:10B9E000FC0000000000000000000000000400084F
:10B9F00007FFF80FFFF8000188000300002FC000C8
:10BA000038F800203800200800000800000000007E
:10BA10000000000004000804000804000807FFF804
:10BA20000FFFF800000800000800000800000000F8
:10BA30000000002008003FF8003FF8001008002038
:10BA400000003FF8003FF8001008002000003FF819
:10BA5000003FF8000008000000002008003FF80048
:10BA60003FF8001008001000002000002008003FF0
:10BA7000F8001FF80000080000000000000007C0E8
:10BA8000000FF000183000300800200800200800E7
:10BA90003008001830000FF00007C0000000000060
:10BAA00000002001003FFF003FFF001011002009AF
:10BAB000002008002008003038001FF0000FC000F0
:10BAC00000000000000007C0001FF0003818002030
:10BAD00008002008002009001011001FFF003FFF90
:10BAE00000000100000000200800200800200800DD
:10BAF0003FF8003FF8000808001008002008002068
:10BB000000003000003000000000000000000000D5
:10BB1000000C78001E1800330800230800210800DC
:10BB200021880021980030F00038600000000000FB
:10BB30000000200000200000200000FFF003FFF8BC
:10BB4000002008002008002008000030000000004D
:10BB50000000000000002000003FF0007FF800001F
:10BB600018000008000008002010003FF8007FF0D7
:10BB70000000100000000000000020000030000065
:10BB80003C00003F800023F000007800007000239C
:10BB900080003C00003000002000002000003C003D
:10BBA000003FE00023F80000E0002700003E000016
:10BBB0003FE00021F80001E0003E0000200000000E
:10BBC00000002008002008003838003E6800278068
:10BBD0000003C8002CF800383800201800200800A6
:10BBE0000000000000002000003003003C01003F86
:10BBF000830023EC000070002380003C0000200044
:10BC000000200000000000000000000000380800D4
:10BC100020380020F80023E8002F88003E08003874
:10BC20000800201800007000000000000000000064
:10BC30000000000000000000000008000014001FC9
:10BC4000F7FC3000062000020000000000000000A9
:10BC500000000000000000000000000000000000E4
:10BC6000FFFFFF00000000000000000000000000D7
:10BC700000000000000000002000023000061FF756
:10BC8000FC0014000008000000000000000000009C
:10BC900000000000000000000018000060000040EC
:10BCA0000000400000200000100000080000040018
:10BCB000000400000C000010000030313233343535
:10BCC00036373839414243444546403058003031D8
:10BCD00032333435363738396162636465664030F3
:10BCE00078000400000800000000000000020001CD
:10BCF00000001000000000000000000002400000F2
:10BD0000000000A00000000005400000000000C886
:10BD1000000000000C4000000000409C00000000FB
:10BD2000194000000020BCBE0000000034400000AC
:10BD3000BFC91B8E00000004B5400000504BCFD09F
:10BD40006607E2CF010000006C4100003E8251AA6C
:10BD5000DFEEA73401000000D9420000DCB5A0E20C
:10BD60003A301F97FFFFFFFFB4450000FD25A0C834
:10BD7000E9A3C14FFFFFFFFFFF3F0000000000806D
:10BD800000000000FF3F00000000008000000000F5
:10BD9000DCBE00080000002018020000C4010008FA
:10BDA000D8BF000818020020486B000020020008DD
:10BDB0001C00000043000000F8FFFFFF0C00000023
:10BDC0000E0000000F0000002E0000001001000017
:10BDD00043000000F8FFFFFF00404040404040406B
:10BDE000404041414141414040404040404040404E
:10BDF00040404040404040404005020202020202F2
:10BE00000202020202020202022020202020202040
:10BE10002020200202020202020290909090909054
:10BE20001010101010101010101010101010101012
:10BE30001010101002020202020288888888888886
:10BE40000808080808080808080808080808080872
:10BE5000080808080202020240000000000000007A
:10BE600000000000000000000000000000000000D2
:10BE700000000000000000000000000000000000C2
:10BE800000000000000000000000000000000000B2
:10BE900000000000000000000000000000000000A2
:10BEA0000000000000000000000000000000000092
:10BEB0000000000000000000000000000000000082
:10BEC0000000000000000000000000000000000072
:10BED0000000000000000000000000000115847A4E
:10BEE000030AA00901020304060708090310FFFF63
:10BEF000292409102801521AAA01012133C2011272
:10BF00000813D97C1B08D504137D7B1B08B1081AC4
:10BF1000590413F970140825721B0831041A5904C6
:10BF20001ABD041A95141A01081704030904120112
:10BF300032021640830440571A02D2194B13E9719A
:10BF40001B0829041AB5281AC5081AA9041AD90CFD
:10BF50001A05081B6D694412681408356E1C08190F
:10BF60006D70126C1B08771C1A030C13296B1B08CD
:10BF7000370481133C010228200213FF1C090243ED
:10BF8000931125C03209041B01020B13052416105E
:10BF900001052401100901042402020524061701E9
:10BFA00007058203081CFF0904C9320A2E07050190
:10BFB0000240072A810711137D8C1B082D041AF1FA
:10BFC00004411A550813B18B1B08F9045AD11441C6
:08BFD00013F9720200080000E1
:040000050800018965
:00000001FF
